:020000040800F2
:100000008849002099010008C10F0008D90E000896
:10001000BD0F000835020008A5110008000000000F
:1000200000000000000000000000000001010008C6
:100030003902000800000000450100082D100008EA
:10004000B3010008B3010008B3010008B3010008C0
:10005000B3010008B3010008B3010008B3010008B0
:10006000B3010008B3010008B3010008B3010008A0
:10007000B3010008B3010008B3010008B301000890
:10008000B3010008B3010008B3010008B301000880
:10009000B3010008B3010008B3010008B301000870
:1000A000B3010008B3010008B3010008B301000860
:1000B000B3010008B3010008B3010008B301000850
:1000C000B3010008B3010008B3010008B301000840
:1000D000B3010008B3010008B3010008B301000830
:1000E000B3010008B3010008B3010008DFF80CD029
:1000F00000F076F800480047FF110008884900200A
:10010000224B19680868B0E8F00F80F30988BFF344
:100110006F8F4FF0000080F311884EF00D0E704786
:100120000000000006480068006880F3088862B696
:1001300061B6BFF34F8FBFF36F8F00DF00BF00BF0B
:1001400008ED00E0EFF30980BFF36F8F0F4B1A68E3
:1001500020E9F00F106008B54FF0BF0080F3118860
:10016000BFF34F8FBFF36F8F01F0DAFB4FF000004A
:1001700080F31188BDE8084019680868B0E8F00FFE
:1001800080F30988BFF36F8F704700BF1000002015
:10019000EFF3058070470000064880470648004797
:1001A000FEE7FEE7FEE7FEE7FEE7FEE7FEE7FEE727
:1001B000FEE7FEE7A7100008ED000008D2B201E05C
:1001C00000F8012B491EFBD270470022F6E710B55C
:1001D00013460A4604461946FFF7F0FF204610BDB5
:1001E000064C074D06E0E06840F0010394E8070084
:1001F00098471034AC42F6D3FFF77CFF081E000886
:10020000281E00081CB50648042100238022CDE9E1
:10021000001004A1064801F0E7FB01F043FB1CBD00
:1002200070000020506F7765725F5461736B00003F
:10023000E90F000800BFFEE7704772B600BFFEE797
:100240002DE9F8470346002294466EE14FF001087D
:1002500008FA02F4D1F8008008EA0400A0427DD137
:10026000DFF8DCA2D1F80480A8EB0A09D0453AD027
:1002700014DCB8F1030F50D009DCB8F1000F31D015
:10028000B8F1010F1CD0B8F1020F49D120E0B8F14C
:10029000110F18D0B8F1120F42D11EE0B9F5881F26
:1002A00025D006DCB9F5803F20D0B9F5801F37D1C5
:1002B0001AE0B9F5001F18D0B9F5041F30D117E0C6
:1002C000D1F80CC02DE0D1F80C8008F1040C28E026
:1002D000D1F80C8008F1080C23E0D1F80C8008F16B
:1002E0000C0C1EE000BF00BF00BF00BF00BF00BF7E
:1002F000D1F80880B8F1000F02D14FF0040C0BE0E8
:10030000D1F80880B8F1010F03D14FF0080C1C613F
:1003100002E04FF0080C5C6103E04FF0000C00E0DD
:1003200000BF00BFFF2801D8984601E003F1040890
:100330004646FF2802D84FEA820803E0A2F10808E7
:100340004FEA88084746D6F800804FF00F0909FAAF
:1003500007F928EA09080CFA07F900E088E048EAFA
:100360000908C6F80080D1F8048008F08058B8F178
:10037000805F7DD100BFDFF8CC81D8F8188048F0CD
:100380000108DFF8C091C9F81880C846D8F818806D
:1003900008F00108CDF8008000BF00BF4FEAB9386F
:1003A0004FEA920958F829504FEA82784FEA1879B3
:1003B0004FF00F0808FA09F825EA0805DFF88881E8
:1003C000434502D14FF0000816E0DFF88081434535
:1003D00002D14FF001080FE0DFF87481434502D1EC
:1003E0004FF0020808E0DFF86C81434502D14FF07E
:1003F000030801E04FF004084FEA82794FEA1979C7
:1004000008FA09F848EA0505DFF84C814FEA920935
:1004100048F82950D1F8048008F48018B8F5801FF6
:100420000AD1DFF83881D8F8008048EA0008DFF800
:100430002C91C9F8008009E0DFF82081D8F800800D
:1004400028EA0008DFF81491C9F80080D1F8048088
:1004500008F40018B8F5001F10D1DFF8008108F18A
:100460000408D8F8008048EA0008DFF8F09000E0BF
:100470005AE009F10409C9F800800DE0DFF8DC80DA
:1004800008F10408D8F8008028EA0008DFF8CC90CA
:1004900009F10409C9F80080D1F8048008F4003893
:1004A000B8F5003F0ED1DFF8B480A8F10408D8F801
:1004B000008048EA0008DFF8A490A9F10409C9F80F
:1004C00000800DE0DFF89480A8F10408D8F80080DF
:1004D00028EA0008DFF88490A9F10409C9F800802F
:1004E000D1F8048008F48038B8F5803F0ED1DFF8E9
:1004F0006C80A8F10808D8F8008048EA0008DFF806
:100500005C90A9F10809C9F800800DE0DFF84C8083
:10051000A8F10808D8F8008028EA0008DFF83C9025
:10052000A9F10809C9F80080521CD1F8008028FA06
:1005300002F8B8F1000F7FF489AEBDE8F88700003B
:10054000000011100010024000080140000C0140A2
:10055000001001400014014008000140080401405F
:100560000AB1016101E00B040361704701480068B2
:100570007047000000000020034800680349097824
:10058000084401490860704700000020080000206E
:1005900010B50848006840F01000064908600320C4
:1005A00000F098F80F2000F007F800F02BF800207A
:1005B00010BD00000020024070B504460E480078CF
:1005C0004FF47A71B1FBF0F00C490968B1FBF0F51A
:1005D000284600F0E9FB08B1012070BD102C07D2BD
:1005E00000222146501E00F037F80548046001E063
:1005F0000120F2E70020F0E7080000200C000020B6
:100600000400002008B500BF1148806940F00100D7
:100610000F4988610846806900F00100009000BF22
:1006200000BF00BF0846C06940F08050C86108465E
:10063000C06900F08050009000BF00BF00BF0549B6
:10064000486820F0E06040F00070486000BF08BDDE
:1006500000100240000001402DE9F05F80460D4689
:100660001646002700F0A0FD074639462A463346C5
:1006700001F00700C0F1070ABAF1040F02D94FF0E8
:10068000040A01E0C0F1070AD14600F1040ABAF1F8
:10069000070F02D24FF0000A01E0A0F1030AD4468E
:1006A0004FF0010A0AFA09FAAAF1010A0AEA020A53
:1006B0000AFA0CFA4FF0010B0BFA0CFBABF1010B31
:1006C0000BEA030B4AEA0B042146404600F074FD96
:1006D000BDE8F09F00BF00F00702064B19684FF617
:1006E000FF031940044B0B4343EA0221014B1960FD
:1006F00000BF70470CED00E00000FA0570B504463D
:100700000D460CB9012070BD5A48006800F0070082
:10071000A8420ED25748006820F0070028435549E8
:1007200008600846006800F00700A84201D00120D8
:10073000E9E7207800F0020002281DD1207800F0BF
:100740000400042805D14C48406840F4E0604A4960
:100750004860207800F00800082805D14648406825
:1007600040F46050444948604348406820F0F0003D
:10077000A168084340494860207800F0010078B340
:100780006068012806D13C48006800F4003090B948
:100790000120B8E76068022806D13748006800F0F9
:1007A000007040B90120AEE73348006800F0020055
:1007B00008B90120A7E73048406820F003006168CD
:1007C00008432D494860FFF7D1FE064609E0FFF7D0
:1007D000CDFE801B41F28831884202D9032092E786
:1007E00007E02548406800F00C006168B0EB810F1D
:1007F000EDD12048006800F00700A8420ED91D483E
:10080000006820F0070028431A490860084600687D
:1008100000F00700A84201D0012074E7207800F022
:100820000400042807D11448406820F4E060E1681F
:10083000084311494860207800F00800082808D1D2
:100840000D48406820F46050216940EAC1000A491F
:10085000486000F03FF808494968C1F30311074AAE
:10086000515CC8400649086006480068FFF7A4FECE
:10087000002048E70020024000100240EE1D000862
:100880000C000020040000200148006870470000B0
:100890000C00002000B5FFF7F7FF04494968C1F3D9
:1008A0000221034A515CC84000BD00000010024014
:1008B000FE1D000800B5FFF7E7FF04494968C1F3D2
:1008C000C221034A515CC84000BD00000010024034
:1008D000FE1D000870B50021002200240023002026
:1008E000134D696801F00C05F5B1042D02D0082DF7
:1008F00019D101E00F4819E00F4DC1F38346AB5DFC
:1009000001F4803555B10A4D6D68C5F340450B4E75
:10091000725D084D5D43B5FBF2F402E0084D03FB48
:1009200005F4204602E000BF024800BF00BF70BDD2
:100930000010024000127A00DC1D0008EC1D0008C7
:1009400000093D00F8B504460CB90120F8BD207837
:1009500000F00100002878D0F848406800F00C0052
:1009600004280CD0F548406800F00C00082811D18C
:10097000F248406800F48030B0F5803F0AD1EF487B
:10098000006800F4003000285FD0606800285CD167
:100990000120DBE700BF6068B0F5803F06D1E74883
:1009A000006840F48030E549086028E0606858B984
:1009B000E248006820F48030E0490860084600689A
:1009C00020F4802008601AE06068B0F5A02F0BD1F9
:1009D000DA48006840F48020D8490860084600687A
:1009E00040F4803008600AE0D448006820F4803089
:1009F000D24908600846006820F48020086000BFE3
:100A0000606888B1FFF7B2FD054606E0FFF7AEFD6E
:100A1000401B642801D9032098E7C848006800F407
:100A200000300028F2D010E0FFF7A0FD054606E0F8
:100A3000FFF79CFD401B642801D9032086E7BF48CF
:100A4000006800F400300028F2D1207800F00200A5
:100A5000022857D1B948406800F00C0050B1B7489F
:100A6000406800F00C00082818D1B448406800F431
:100A7000803098B9B148006800F0020020B12069C8
:100A8000012801D0012061E7AC48006820F0F8009F
:100A9000616940EAC100A949086033E02069E8B112
:100AA0000120A7490860FFF761FD054606E0FFF752
:100AB0005DFD401B022801D9032047E79F480068DD
:100AC00000F002000028F2D09C48006820F0F800F6
:100AD000616940EAC1009949086013E00020984923
:100AE0000860FFF743FD054606E0FFF73FFD401BAA
:100AF000022801D9032029E79048006800F002008D
:100B00000028F2D1207800F0080008282DD1A06933
:100B1000B8B101208B490860FFF728FD054606E0C3
:100B2000FFF724FD401B022801D903200EE783486C
:100B3000406A00F002000028F2D0012000F062FAC2
:100B400013E000207F490860FFF710FD054606E02E
:100B5000FFF70CFD401B022801D90320F6E6774879
:100B6000406A00F002000028F2D1207800F0040072
:100B7000042873D100277148C06900F0805070B913
:100B800000BF6E48C06940F080506C49C86108469B
:100B9000C06900F08050009000BF00BF01276A4884
:100BA000006800F48070B0B96748006840F4807055
:100BB00065490860FFF7DAFC054606E0FFF7D6FC5A
:100BC000401B642801D90320C0E65F48006800F498
:100BD00080700028F2D000BFE068012806D1574895
:100BE000006A40F001005549086227E0E06858B902
:100BF0005248006A20F00100504908620846006A25
:100C000020F00400086219E0E06805280BD14B4889
:100C1000006A40F00400494908620846006A40F052
:100C2000010008620AE04548006A20F001004349DB
:100C300008620846006A20F00400086200BFE0680D
:100C4000A0B1FFF793FC054609E0FFF78FFC401BBE
:100C500041F28831884202D9032077E622E0374802
:100C6000006A00F002000028EFD012E0FFF77EFCDF
:100C7000054608E0FFF77AFC401B41F288318842C4
:100C800001D9032062E62D48006A00F00200002826
:100C9000F0D1012F05D12948C06920F080502749A3
:100CA000C86100BFE069C8B32448406800F00C0088
:100CB000082860D0E069022848D100202049086651
:100CC000FFF754FC054606E0FFF750FC401B0228E6
:100CD00001D903203AE61948006800F000700028A6
:100CE000F2D1206AB0F5803F07D11448406820F463
:100CF0000030A168084311494860D4E9080108435D
:100D00000E49496821F4741108430C4948600120D8
:100D10000B490866FFF72AFC054607E03DE0FFF7B0
:100D200025FC401B022801D903200FE60348006878
:100D300000F000700028F2D02FE000000010024008
:100D400000004242800442420070004000201449EA
:100D50000866FFF70BFC054606E0FFF707FC401BA3
:100D6000022801D90320F1E50E48006800F0007068
:100D70000028F2D111E0E069012800D1E6E5094838
:100D8000466806F48031206A814204D106F470116D
:100D9000606A814201D00120D8E50020D6E500003C
:100DA000000042420010024070B504462546681E0D
:100DB000B0F1807F01D301200FE0681E4FF0E021E9
:100DC00048610F214FF0FF3000F0F6F900204FF09E
:100DD000E021886107200861002070BD10B504463D
:100DE0000CB9012010BDA06900B100E000BF94F86B
:100DF000410028B9002084F84000204600F02AF87D
:100E0000242084F841002068C06820F40050216844
:100E1000C860204600F048F92068006920F490403E
:100E2000216808612068406920F02A002168486133
:100E30002068C06840F400502168C86000206064E9
:100E4000202084F8410084F842000020606300BF45
:100E5000C8E7000010B586B0044600200290039059
:100E6000049005901949206888422DD100BF184888
:100E7000C06940F400301649C8610846C06900F4F2
:100E80000030019000BF00BF00BF0846806940F0FD
:100E9000040088610846806900F00400019000BFEA
:100EA00000BF04200290022003900320059002A9B5
:100EB0000848FFF7C5F9082002900020039004902D
:100EC00002A90448FFF7BCF906B010BD0044004079
:100ED000001002400008014000BFFEE700B585B0E9
:100EE0000020019002900390049000BF2348806985
:100EF00040F01000214988610846806900F0100028
:100F0000009000BF00BF00BF0846806940F020008D
:100F100088610846806900F02000009000BF00BF93
:100F200000BF0846806940F0040088610846806977
:100F300000F00400009000BF00BF00BF08468069B9
:100F400040F0080088610846806900F008000090C1
:100F500000BF00BF012204210948FFF701FB042064
:100F6000019001200290002003900220049001A92A
:100F70000348FFF765F905B000BD0000001002400E
:100F8000000C014010B50B480B4908604FF4E130EC
:100F90004860002108488160C16001610C21416105
:100FA00000218161C161FFF719FF08B1FFF745F921
:100FB00010BD0000004400407400002000BFFEE7A8
:100FC00000BFFEE710B5012204210648FFF7C8FA6A
:100FD000642000F04DFC002204210248FFF7C0FA13
:100FE00010BD0000000C014008B500F07BFD009032
:100FF00006E04FF47A71684600F02AFDFFF7E2FF41
:10100000F7E7000008B508490968C9084FF47A7283
:10101000B1FBF2F14143009100BF00BF00994A1EAD
:1010200000920029F9D108BD0C00002010B500F095
:1010300049FD012801D000F0BDFCFFF79DFA10BD6D
:1010400000B58FB0282105A8FFF7BFF81421684626
:10105000FFF7BBF8012005900004069000200790E0
:101060000120099002200C90C1030D914FF4E01172
:101070000E9105A8FFF766FC08B1FFF7DEF80F2018
:10108000009002200190002002904FF480600390B5
:101090000020049002216846FFF730FB08B1FFF7FB
:1010A000CCF80FB000BD704770B5044621680969DF
:1010B00021F44051E2681143226811612269A1685C
:1010C0001143626941EA02052168C96841F20C6274
:1010D000914329432268D1602168496921F4407114
:1010E000A2691143226851612D4A2168914202D1BF
:1010F000FFF7E0FB01E0FFF7CDFB00EBC00101EBE8
:10110000001162689200B1FBF2F100EBC00202EB49
:10111000001263689B00B2FBF3F26423B2FBF3F2AC
:1011200002EBC20303EB0212A1EB8201322202EBBB
:1011300001116422B1FBF2F101F0F00100EBC002F9
:1011400002EB001263689B00B2FBF3F26423B2FB74
:10115000F3F201EB021200EBC00101EB0011636836
:101160009B00B1FBF3F100EBC00303EB00136668D7
:10117000B600B3FBF6F36426B3FBF6F303EBC3064A
:1011800006EB0313A1EB8301322303EB011164236C
:10119000B1FBF3F101F00F0111442268916070BDC1
:1011A0000038014000BFFEE702480068C0F302209B
:1011B000704700000CED00E010B5002804DB0A07C2
:1011C000130E054A135406E00A07140E034A00F0F2
:1011D0000F031B1FD45410BD00E400E018ED00E025
:1011E00002E008C8121F08C1002AFAD170477047F0
:1011F000002001E001C1121F002AFBD17047FFF758
:10120000C7F9FFF71DFFFFF769FEFFF7BBFEFEF70B
:10121000F9FF00BFFEE700002DE9F04105460E464C
:101220002648076826480068001D00F08FFA50B96C
:101230002348006890F82C10012088402149096853
:10124000814320480160681CD8B9D6B11E4948685E
:101250001B49096888601A4982680968CA60184988
:101260000968091D8268516015490968091D816076
:10127000154A134909684A6111460968491C1160F9
:101280001AE07C190E4800684460BC4207D20C4842
:101290000168091D0D48006800F07CFA0CE0084860
:1012A0000168091D0A48006800F074FA09480068DE
:1012B000844201D207480460BDE8F0812400002088
:1012C00010000020280000207001002018000020DD
:1012D000140000204000002010B5044600F074FA0D
:1012E0002F480068401C2E4908602E48006840B90D
:1012F0002C4804600846006801280DD100F016F95A
:101300000AE02948006838B926480068C06AE16ADE
:10131000884201D82348046024480068401C2349BF
:10132000086094F82C10012088402149096808437E
:101330001F490860E16A01EB81011E4A02EB81014D
:101340004868A0608268E260211D82685160816007
:10135000E16A01EB8101174A02EB81026261E16AF5
:1013600001EB8101134A52F82110491CE26A02EB99
:101370008202104B43F8221000F038FA0A48006845
:1013800068B108480068C06AE16A884207D24FF035
:10139000805009490860BFF34F8FBFF36F8F10BDB6
:1013A00020000020100000202C0000203C00002025
:1013B00028000020BC00002004ED00E010B516E07D
:1013C00000F002FA0C48C068C468201D00F0BEF9A5
:1013D0000A480068401E0949086009480068401E24
:1013E0000749086000F002FA204600F00BF80448B4
:1013F00000680028E4D110BD5C010020200000201E
:101400001C00002010B50446206B00F0FFF92046B8
:1014100000F0FCF910BD000030B54FF488431548CA
:1014200000F007042CB1C01D20F00700114C041B74
:101430001B1B0246104C226000240F4D6C60D0181C
:10144000083820F007000D4C206000240B4D2D685B
:101450006C600A4D2D682C601146441A4C60074C94
:1014600024680C60064D4C682C60064D4C682C605E
:1014700030BD0000840100205000002058000020F2
:10148000600000205C00002000BFFFF797FF0648C7
:1014900000680128F9D94FF0805004490860BFF373
:1014A0004F8FBFF36F8FF0E7BC00002004ED00E02A
:1014B0002DE9FF5F80460E469146DDE90E7A109CCD
:1014C000A9F10100216B01EB800B2BF0070B7EB122
:1014D000002507E0715D04F134004155705D00B9ED
:1014E00002E06D1C102DF5D300BF002143200155F3
:1014F000052F00D30427E762201D00F048F904F10E
:10150000180000F044F92461C7F10500A06164628D
:1015100041465846039A00F007F92060BAF1000FDF
:1015200001D0CAF80040BDE8FF9F000010B50024BC
:1015300007E004EB84010F4A02EB810000F01AF986
:10154000641C052CF5D30C4800F014F90B4800F08E
:1015500011F90B4800F00EF90A4800F00BF90A489F
:1015600000F008F90448094908600448084908607F
:1015700010BD0000BC00002020010020340100202C
:10158000480100205C0100207001002014000020B0
:101590001800002010B50146164800E000680368F6
:1015A0008B42FBD30246436813448B4204D1436809
:1015B0004C682344436001460A464B681344046860
:1015C000A34211D10C4C03682468A34208D04B6895
:1015D0000468646823444B6003681B680B6005E083
:1015E000054B1B680B6001E003680B60884200D06C
:1015F000016010BD5000002058000020094800681C
:10160000006808B9012000E0002020B14FF0FF3051
:101610000549086005E003480068C06800680249A1
:1016200008607047140000204000002000BFBF2069
:1016300080F31188BFF34F8FBFF36F8F00BF00BFE0
:10164000FEE700002DE9F04705464FF0000900F0E5
:101650005FF93048006808B9FFF7DEFE75B105F0A4
:101660000700C0F11008C8F1FF30A84201D20120E4
:1016700000E0002008B9454400E00025012000EB0F
:10168000E570002841D0002D3FD0234800688542F6
:101690003BD8224E3046046801E026462468606844
:1016A000A84202D220680028F7D11A480068844274
:1016B0002BD0306800F10809206830606068401B5A
:1016C000102807D967196068401B78606560384644
:1016D000FFF760FF104960680968081A0E49086042
:1016E000084600680E490968884203D20A48006823
:1016F0000B490860606840F0004060600020206096
:1017000008480068401C0749086000F0B9FA4846DC
:10171000BDE8F087580000205C0000205000002049
:101720006000002064000020001F4FF08073036001
:10173000001F21F001030360001F034B03601438F6
:1017400002602038704700002D16000801460A6923
:10175000D1E901309860D1E90103586050688842AE
:1017600001D188685060002008611068401E106038
:101770001068704700F1080141604FF0FF3181604F
:1017800000F10801C1600161002101607047002182
:101790000161704710B502460B685C1C0CB91069FA
:1017A00007E002F1080000E04068446824689C42B9
:1017B000FAD944684C604C68A160886041600A6155
:1017C0001468641C146010BD00BFBF2080F3118832
:1017D000BFF34F8FBFF36F8F00BF03480068401CFB
:1017E00001490860704700006C000020064800684E
:1017F000401E054908600846006820B9002080F3B3
:10180000118800BF00BF70476C00002070B506460D
:101810003546E6B1083D2C466068C00FB8B1206877
:10182000A8B9606820F00040606000F071F80849D5
:10183000606809680844064908602046FFF7AAFE68
:1018400004480068401C0349086000F019FA70BDA4
:101850005C0000206800002000204FF0E0210861BB
:101860008861024848610720086170473F190100FC
:1018700070B50446002544B100F04AF80021204626
:10188000FFF7CAFC00F0FCF905463DB94FF0805067
:1018900003490860BFF34F8FBFF36F8F70BD000027
:1018A00004ED00E01CB5124800210B468022CDE972
:1018B000001010A1114800F097F80446012C14D133
:1018C00000BFBF2080F31188BFF34F8FBFF36F8F2E
:1018D00000BF4FF0FF300A49086001200949086045
:1018E00000200949086000F04BF8084800681CBD5A
:1018F0004400002049444C450000000089140008C1
:10190000400000202C00002024000020480000207F
:1019100002480068401C0149086070474C000020E4
:101920001248006818B10120114908601DE000202C
:101930000F4908600F480068B0FA80F0C0F11F013D
:1019400001EB81020C4B03EB82004268526842605B
:1019500000F108024368934202D142685268426033
:101960004268D268054B1A6000BF70474C000020E7
:101970003400002028000020BC00002010000020BF
:1019800010B50A48006840F47F000849086008461E
:10199000006840F07F400860FFF75EFF00200449C8
:1019A0000860FEF7BFFB002010BD000020ED00E046
:1019B0006C00002010B500BFBF2080F31188BFF37A
:1019C0004F8FBFF36F8F00BF00F092F818B14FF048
:1019D00080500449086000BF002080F3118800BFD8
:1019E00010BD000004ED00E02DE9FF4F85B08046FA
:1019F00089461746DDE912ABB800FFF723FE06461D
:101A000076B14C20FFF71EFE04462CB14C21204637
:101A1000FEF7DBFB266304E03046FFF7F7FE00E04D
:101A200000247CB10020CDE900ABCDE902403A466C
:101A300049464046089BFFF73BFD2046FFF74CFC1C
:101A4000012501E04FF0FF35284609B0BDE8F08FD1
:101A50002DE9F047044688464FF00009FFF758FF8C
:101A600016480668206800EB08052068B04207D9D0
:101A70002068A8420BD9B54209D94FF0010906E008
:101A80002068A84201D8B54201D94FF0010925606C
:101A9000B9F1000F03D0A81B0021FFF7BDFB00F038
:101AA000EFF807463FB94FF0805005490860BFF393
:101AB0004F8FBFF36F8F4846BDE8F08724000020AA
:101AC00004ED00E00549096809B9012005E0044971
:101AD000096809B9022000E0002070472C000020AE
:101AE0004C000020014908687047000024000020D5
:101AF0002DE9F04100275748006800287ED156485C
:101B00000068451C544805608DB95448D0F80080E1
:101B100053480068514908605148C0F80080514856
:101B20000068401C4F490860FFF768FD00BF4E4841
:101B30000068854276D300BF48480068006808B94D
:101B4000012000E0002020B14FF0FF30464908603E
:101B500067E042480068C068C4686668B54202D25F
:101B6000414806605DE06069D4E902128A60D4E908
:101B700002214A60211D42688A4201D1E168416028
:101B8000002262610168491E0160A06A98B1A06AE2
:101B9000D4E907128A60D4E907214A6004F11801E8
:101BA00042688A4201D1216A41600022A262016832
:101BB000491E016000BF94F82C10012088402B4979
:101BC0000968084329490860E16A01EB8101284A54
:101BD00002EB81014868A0608268E260211D826892
:101BE00051608160E16A01EB8101214A02EB8102CF
:101BF0006261E16A01EB81011D4A00E022E052F8D6
:101C00002110491CE26A02EB8202194B43F82210B0
:101C10001849E06A0968C96A88428DD901278BE7AB
:101C200000E000BF13480068C06A00EB8000104964
:101C300051F82000012800D901270F48006800B1A1
:101C4000012704E00D480068401C0C490860384634
:101C5000BDE8F0814C00002024000020140000208A
:101C6000180000203800002040000020280000203C
:101C7000BC000020100000203400002030000020B4
:101C800070B500240026FFF79FFD4B480068401EFA
:101C9000494908600846006800287DD14748006827
:101CA000002879D05BE04648C068C468A06AD4E9DF
:101CB00007128A60D4E907214A6004F118014268DA
:101CC0008A4201D1216A41600022A2620168491E54
:101CD00001606069D4E902128A60D4E902214A6095
:101CE000211D42688A4201D1E1684160002262619F
:101CF0000168491E016094F82C1001208840314988
:101D0000096808432F490860E16A01EB81012E4A06
:101D100002EB81014868A0608268E260211D826850
:101D200051608160E16A01EB8101274A02EB810287
:101D30006261E16A01EB8101234A52F82110491CDA
:101D4000E26A02EB8202204B43F822101F49E06A4C
:101D50000968C96A884202D301201D4908601848F1
:101D6000006808B9012000E0002000289BD00CB1D9
:101D7000FFF744FC1748056865B100BFFFF7B8FEE0
:101D800010B10120124908606D1E002DF6D100200F
:101D9000104908600E4800E009E0006838B10126EB
:101DA00030070D490860BFF34F8FBFF36F8FFFF708
:101DB0001DFD304670BD00004C00002020000020BA
:101DC0004801002028000020BC0000201000002056
:101DD000340000203000002004ED00E00203040580
:101DE000060708090A0B0C0D0E0F10100102000067
:101DF00000000000000001020304060708090000BB
:101E00000000010203040000281E0008000000205A
:101E100074000000E01100089C1E000874000020FF
:101E200014490000F011000800000000100000003C
:101E30000100000000127A00000000000000000015
:101E40000000000000000000000000000000000092
:101E50000000000000000000000000000000000082
:101E60000000000000000000000000000000000072
:101E7000040000000000000000000000000000005E
:101E80000000000000000000000000000000000052
:0C1E900000000000AAAAAAAA000000009E
:04000005080000ED02
:00000001FF
