:020000040800F2
:10000000B04C0020990100088543000867350008BE
:1000100081430008110D0008BD4D000800000000DC
:1000200000000000000000000000000001010008C6
:10003000D51500080000000045010008D948000857
:10004000B3010008B3010008B3010008B3010008C0
:10005000B3010008B3010008B3010008B3010008B0
:10006000B3010008B3010008B3010008B3010008A0
:10007000B3010008B3010008B3010008B301000890
:10008000B3010008B3010008B3010008B301000880
:10009000B3010008B3010008B3010008B301000870
:1000A000B3010008B3010008B3010008B301000860
:1000B000B3010008B3010008B3010008B301000850
:1000C000B3010008B3010008B3010008B301000840
:1000D000B3010008B3010008B3010008B301000830
:1000E000B3010008B3010008B3010008DFF80CD029
:1000F00000F074FC004800470D560008B04C00208A
:10010000224B19680868B0E8F00F80F30988BFF344
:100110006F8F4FF0000080F311884EF00D0E704786
:100120000000000006480068006880F3088862B696
:1001300061B6BFF34F8FBFF36F8F00DF00BF00BF0B
:1001400008ED00E0EFF30980BFF36F8F0F4B1A68E3
:1001500020E9F00F106008B54FF0BF0080F3118860
:10016000BFF34F8FBFF36F8F05F058FE4FF00000C5
:1001700080F31188BDE8084019680868B0E8F00FFE
:1001800080F30988BFF36F8F704700BF1000002015
:10019000EFF3058070470000064880470648004797
:1001A000FEE7FEE7FEE7FEE7FEE7FEE7FEE7FEE727
:1001B000FEE7FEE753490008ED000008202A04DBB3
:1001C000203A21FA02F00021704721FA02F3D040D0
:1001D000C2F120029140084319467047D2B201E0B3
:1001E00000F8012B491EFBD270470022F6E710B53C
:1001F00013460A4604461946FFF7F0FF204610BD95
:10020000421C10F8011B0029FBD1801A70470246DE
:10021000C9B200E0401C0378002BFBD102E0037858
:100220008B4203D0401E9042F9D200207047F0B4B8
:1002300080EA0102D40F4200B2EB410F02D2024623
:10024000084611464A0042D0C30DDDB2C1F3C75281
:10025000AD1A202D35DAC1F3160141F4000204B1C4
:100260005242C5F1200602FA06F12A411044B3EBCE
:10027000D05F23D0C4B1012DA0EBC35009DCF0BC8A
:100280004FF0004202EAC352DBB200F5000000F07A
:1002900093BA400000F1807000EBC350A0F1807071
:1002A00040EAD170490009E0490841EAC071A0EB79
:1002B000C35000F50000400800EBC350F0BC00F054
:1002C00072BA6142012202EB4101001BF6E7F0BC69
:1002D000704781F00041AAE780F00040A7E780EA7C
:1002E000010210B502F00043400022D04A001FD0A6
:1002F000010E01EB1261C0F35600C2F3560240F446
:10030000000042F40002A0FB022000047F39140424
:1003100000D0401C50EA124001D44000491EC2B235
:100320000C0604EBD010401C4008802A02D003E0E9
:10033000002010BD20F00100002900DA0020184341
:1003400010BD30B480EA010202F0004530F00042F6
:1003500021F0004013D090B1C30DD40DC2F31601AB
:10036000C0F31600E41A41F4000140F400027D34A9
:10037000914201D3641C00E04900002C02DA30BC39
:10038000002070474FF400000023914201D3891AE6
:10039000034340084FEA4101F7D151B1914202D1E4
:1003A0004FF0004105E002D24FF0010101E06FF093
:1003B000010103EBC450284430BC00F0F4B92DE92E
:1003C000FE4F804681EA0300C00F0C46009021F0EA
:1003D000004123F00045B8EB0200A94105D2404698
:1003E000214690461C460B46024623F0004010432F
:1003F00047D0270DC7F30A00C3F30A510290401AF1
:10040000019040286BDAC3F3130040F4801B00987E
:10041000924620B10023D2EB030A63EB0B0B019849
:100420005946C0F14002504600F09CF906460D4680
:1004300050465946019A00F0A4F910EB08006141BA
:10044000002487EA115284EAE7731A4340D0009AE5
:1004500062B3019A012A4FEA075215DC001B61EBD7
:1004600002014FF0004202EA0752CDE90042001CAF
:1004700041F5801132462B4600F0DBF903B0BDE8B0
:10048000F08F40462146F9E7001B61EB0201001C9A
:1004900041F5801300185B412018A2F5001747EBC7
:1004A000030140EAD570B6196D4111E06D084FEABD
:1004B000360645EAC0754FEA0752001B61EB0201A0
:1004C000001C41F5801149084FEA300000195141E4
:1004D00032462B4603B0BDE8F04F00F09BB90098C0
:1004E000012240000023D0EB020263EBE07300988E
:1004F00021464FEAE074B8EB000061EB0401E9E744
:1005000083F000435BE781F0004158E72DE9FE4F9F
:1005100081EA030404F0004421F0004100944FF00C
:10052000000B23F0004350EA01045ED052EA0304BA
:100530005BD0C3F30A54C1F30A552C44A4F2F3343C
:100540000194A0FB0254C1F3130141F48011C3F3E1
:10055000130343F4801301FB024400FB034E840A9F
:10056000970A44EA815447EA8357A4FB0768029537
:100570008D0A05FB07854FEA932C04FB0C542705D5
:10058000029D4FEA065847EA1637B5EB08056EEBB1
:10059000070C870E920E47EA811742EA8312A7FBE7
:1005A0000201B6EB0B0164EB00042B0D43EA0C33A4
:1005B0005E1844EB1C50DA465146E7FB0201C5F3D6
:1005C00013044FEA0B3343EA14534FEA0432019CFD
:1005D00043EA0603A4F10C040294009CCDE900B4A4
:1005E00000F027F903B0BDE8F08F00200146F9E7DD
:1005F000C10F80EAE0700844CA079623002100F08A
:10060000DBB80EB5C10F80EAE0700844CA070021CC
:1006100040F233438DE80E000A460B4600F009F91C
:1006200003B000BD00F0004220F00040C10DC0F357
:10063000160040F400007F2901DA00207047962957
:1006400003DCC1F19601C84001E096398840002AD8
:10065000F4D04042704770B5C1F30A5201F0004532
:100660000024C1F3130140F2FF3341F480119A4298
:1006700001DA002070BD40F233439A42A2F23342C5
:1006800003DC5242FFF79AFD00E090402C43F1D08A
:10069000404270BD00F0004230F000400AD0C10D71
:1006A00001F56071C0F3160042EA0151C20840072B
:1006B00011437047002001467047000030B5041E0A
:1006C00071F1000404DB4FF00044404264EB01018F
:1006D000141E73F1000405DB1C464FF00043524228
:1006E00063EB04038B4208BF824230BD01F000433C
:1006F00030B421F0004150EA010206D00A0DA2F503
:100700006072C1F31301002A02DC30BC0020704784
:10071000440F44EAC104C100E01830BC00EBC250F1
:1007200000F041B8002801DBC0F10040002901DBE6
:10073000C1F100418842704730B50B4601460020A8
:100740002022012409E021FA02F59D4205D303FA93
:1007500002F5491B04FA02F52844151EA2F1010214
:10076000F1DC30BD202A04DB203A00FA02F100203F
:1007700070479140C2F1200320FA03F319439040DF
:100780007047202A06DBCB17203A41FA02F043EAF1
:10079000E07306E041FA02F3D040C2F1200291403A
:1007A0000843194670470029A8BF7047401C4900FC
:1007B00008BF20F00100704710B4B0FA80FC00FAC6
:1007C0000CF050EA010404BF10BC704749B1CCF1F1
:1007D000200421FA04F411FA0CF118BF012121437D
:1007E0000843A3EB0C01CB1D4FEA00614FEA102038
:1007F00042BF002010BC704700EBC35010440029DA
:10080000A4BF10BC7047401C490008BF20F0010085
:1008100010BC704710B5141E73F1000408DA401CB8
:1008200041F1000192185B411A4301D120F001000F
:1008300010BD2DE9F04D92469B4611B1B1FA81F2FF
:1008400002E0B0FA80F220329046FFF78BFF0446B8
:100850000F4640EA0A0041EA0B0153465A46084354
:1008600013D0114653EA010019D0C8F14002504696
:10087000FFF7A4FC05460E46504659464246FFF790
:1008800071FF084305D0012004E020463946BDE849
:10089000F08D0020054346EAE0762C4337430A9862
:1008A0006305E40AA0EB08000022FD0A44EA47546D
:1008B0000A3002D500200146E9E701051019694117
:1008C000DDE9084500196941BDE8F04DA2E72DE9D1
:1008D000F04D81EA030404F0004B21F0004514467A
:1008E0004FF0000A23F0004150EA050220D054EAFC
:1008F00001021DD0C5F30A570246C5F31303C1F325
:100900001300C1F30A5640F4801543F48013A7EB9B
:100910000608101BD64608F2FD3873EB050002D31B
:1009200008F1010801E092185B41B8F1000F03DA09
:1009300000200146BDE8F08D00204FF480110646EE
:1009400084460EE0171B73EB050705D3121B63EB00
:10095000050306434CEA010C49084FEA300092189F
:100960005B4150EA0107EDD152EA030012D082EA5E
:10097000040083EA0501084305D0101BAB4106D2F1
:100980000122002306E000224FF0004302E06FF056
:10099000010253101AEB06004CEB085110EB0A0051
:1009A00041EB0B01BDE8F04DFFF734BF70B521F00E
:1009B000004303430CD0C1F30A550024D5EB0405D2
:1009C00064EB0403D617AD1AB34102DB00200146E5
:1009D00070BD201841EB025170BD0000064C074D60
:1009E00006E0E06840F0010394E8070098471034FF
:1009F000AC42F6D3FFF77EFBA0640008C064000899
:100A0000420005D0C0F3C7525242914201DC00209F
:100A1000704700EBC15070472DE9F04D00231A4696
:100A20001B1A8A4103DB00200146BDE8F08DC1F3AB
:100A30000A52C1F3130141F480154FF0000BD107A6
:100A400002D100186D41521E0027044640F2FF11EA
:100A5000384601EB620A3E468046024600204FF4CB
:100A60008011FFF7ABFBC2197141BB1846EB0100C7
:100A7000B4EB030C75EB000C04D3E41A65EB000532
:100A800017460E46241908F101006D4180463428AE
:100A9000E3DDF91946EB0600091BA84103D24FF02C
:100AA000FF32134601E0002213461BEB070046EB22
:100AB0000A51BDE8F04DFFF7ADBE70B58C1810F8C7
:100AC000015B15F0070301D110F8013B2A1106D193
:100AD00010F8012B03E010F8016B01F8016B5B1EAD
:100AE000F9D12B0705D40023521E0DD401F8013B88
:100AF000FAE710F8013BCB1A921C03E013F8015BF4
:100B000001F8015B521EF9D5A142D8D3002070BD77
:100B10002DE9FC41444803F09FF9444AB2F9001022
:100B2000414AB2F9000000F071F93F4908803F4A9C
:100B3000B2F902103C4AB2F9020000F067F93A49F2
:100B400048803A4AB2F90410374AB2F9040000F07A
:100B50005DF9354988800846008834490880324864
:100B6000408848803048808888802F49B1F9060045
:100B7000FFF747FD064632460B462D4800F0EEF8DB
:100B80000446FFF768FD00B22749C880B1F90800A4
:100B9000FFF737FD064632460B462548183000F071
:100BA000DDF80446FFF757FD01B21F4801810146F9
:100BB000B1F90A00FFF725FD064632460B461C48F0
:100BC000303000F0CBF80446FFF745FD01B216487F
:100BD0004181184A184900F041F917490868FFF7A0
:100BE00021FD044614498868FFF71CFD054612499B
:100BF0004868FFF717FD07462F2110A0FFF707FBF6
:100C000028B12F210DA0FFF702FB401C00E00BA034
:100C100006463B462E2231460EA0CDE9005404F094
:100C2000CFF8BDE8FC810000944800204801002076
:100C300070000020A69BC43BA0480020496E74654C
:100C400072666163655C4150505F466C69676874A9
:100C50002E6300005B25733A25645D3A25642C25DC
:100C6000642C25640A0000001CB5154804210023EB
:100C70008022CDE9001013A1154805F033F915487D
:100C8000032100238022CDE9001013A1154805F0AF
:100C900029F91548012100238022CDE9001013A174
:100CA000154805F01FF91548022100238022CDE9DF
:100CB000001013A1154805F015F905F071F81CBDD9
:100CC000E8000020506F7765725F5461736B00001D
:100CD000F1430008EC000020466C696768745F54BB
:100CE00061736B0073170008F00000204C45445FEF
:100CF0005461736B00000000F93A0008F400002012
:100D0000436F6D5F5461736B00000000150D0008A8
:100D100000BFFEE71CB505F009FA019019E003F0E9
:100D2000B5FB0446204600F057FC0A48007A01282B
:100D300008D10020022302460146009006480068C0
:100D400005F03EF900F066FC062101A805F0FEF86A
:100D500000BFE4E768480020E80000202DE9F047E4
:100D600088B0824614461D46DAF81010DAF8000002
:100D7000FFF75DFACAF80400DAF81410DAF8040094
:100D8000FFF755FA06463146DAF80400FFF7D9FABC
:100D9000CAF80C00DAF80800FFF77CFC22462B4664
:100DA000CDE90001FFF7AFFBCDE90201DAF80C0055
:100DB000FFF770FC0646DDE90223FFF7A7FB80463C
:100DC0008946DAF80800FFF765FC42464B46CDE954
:100DD0000401FFF7F4FACDE90601FFF787FCCAF832
:100DE00008004FF07E50DAF80C10FFF772FA064652
:100DF000DAF80410FFF773FACAF80000DAF808000E
:100E0000FFF748FC08B0BDE8F08700002DE9FC5F63
:100E100083460C462046FFF7F4FB07464FF033327B
:100E20000C4BFFF773FB81468A465846FFF7E9FBF8
:100E300007464FF03332084BFFF768FB4A465346EC
:100E4000CDE90001FFF7BBFA0546FFF704FC00B24D
:100E5000BDE8FC9F3333EB3F3333C33F07B5A0B04E
:100E60004FF07C512298FFF73AFA0E90FE488068C6
:100E70000690FD48006805900699FFF730FA089043
:100E8000F948C0680690F848406805900699FFF751
:100E900026FA07900899FFF71CFA4FF08041099055
:100EA000FFF71DFA1D90F048C0680690EE48806874
:100EB00005900699FFF713FA0890EB4840680690F2
:100EC000E948006805900699FFF709FA0790089924
:100ED000FFF7ADF94FF080410990FFF700FA1E903F
:100EE000E14880680590E048806804900599FFF724
:100EF000F6F90790DC4840680590DB4840680490AC
:100F00000599FFF7ECF906900799FFF790F94FF074
:100F100080410890FFF7E3F94FF07E510990FFF709
:100F2000DBF91F902098B0F90A000490FFF760FBEE
:100F300006902098B0F90A000490FFF759FB05903D
:100F40000699FFF7CCF908902098B0F908000290B4
:100F5000FFF74EFB04902098B0F908000290FFF7CD
:100F600047FB03900499FFF7BAF906902098B0F96F
:100F700006000290FFF73CFB04902098B0F90600B1
:100F80000290FFF735FB03900499FFF7A8F905904D
:100F90000699FFF74CF907900899FFF748F909906F
:100FA00003F038FA0F902098B0F906000890FFF788
:100FB0001FFB09900F99FFF792F91A902098B0F94A
:100FC00008000890FFF714FB09900F99FFF787F9C5
:100FD0001B902098B0F90A000890FFF709FB0990D0
:100FE0000F99FFF77CF91C901E9807901C980690AB
:100FF0000799FFF774F909901F9807901B980690BE
:101000000799FFF76CF908900999FFF762F91490B6
:101010001F9807901A9806900799FFF760F90990B2
:101020001D9807901C9806900799FFF758F90890AB
:101030000999FFF74EF915901D9807901B98069097
:101040000799FFF74CF909901E9807901A98069097
:101050000799FFF744F908900999FFF73AF91690B4
:1010600014980890814801680898FFF738F90990AA
:101070007F480068014608900998FFF7D8F87C4936
:10108000086015980890794801680898FFF727F9D3
:10109000099077484068014608900998FFF7C7F81B
:1010A0007349486016980890704801680898FFF7DF
:1010B00016F909906E488068014608900998FFF774
:1010C000B6F86B4988601498014606906948006834
:1010D000FFF705F908902098B0F900000590FFF798
:1010E00087FA0690644801680698FFF7F8F80790B9
:1010F0000899FFF79CF809905D4800680146089040
:101100000998FFF794F817901598014606905948EA
:101110000068FFF7E4F808902098B0F90200059005
:10112000FFF766FA0690544801680698FFF7D7F86B
:1011300007900899FFF77BF809904D4840680146F1
:1011400008900998FFF773F81890169801460690D2
:1011500048480068FFF7C3F808902098B0F90400E9
:101160000590FFF745FA0690434801680698FFF797
:10117000B6F807900899FFF75AF809903C4880683C
:10118000014608900998FFF752F8199019980690AF
:101190003548C06805900699FFF7A1F8089018989F
:1011A00004903148806803900499FFF798F80690FE
:1011B0002D48406880F00040049017980146039045
:1011C0000498FFF78CF805900699FFF782F80790CE
:1011D0000899FFF77EF809900E99FFF780F81390B1
:1011E000199806902048806805900699FFF777F8CF
:1011F0000890189804901C48C06803900499FFF761
:101200006EF80690179804901748006803900499A8
:10121000FFF765F805900699FFF75BF807900899C6
:10122000FFF705F809900E99FFF759F812901998F1
:1012300006900D48406805900699FFF750F8089011
:10124000189804900848006803900499FFF747F83D
:101250000690179804900448C06803900499FFF71B
:101260003EF80590069909E0D8000020D40000203F
:101270005C480020D0000020C0000020FEF7D7FF0F
:1012800007900899FFF725F809900E99FFF727F8BE
:10129000119019980690CA48006805900699FFF7C2
:1012A0001EF8089018980490C54840680390049967
:1012B000FFF715F80690C248806880F0004004905F
:1012C0001798014603900498FFF709F805900699CE
:1012D000FEF7ADFF07900899FEF7A9FF09900E9958
:1012E000FEF7FDFF1090B648006809901399FEF7CD
:1012F0009EFFB34908600846406809901299FEF7BE
:1013000096FFAF4948600846806809901199FEF73A
:101310008EFFAB4988600846C06809901099FEF7B7
:1013200086FFA749C8600846C06806900846C0689E
:1013300005900699FEF7D3FF0890A14880680490B5
:101340009F48806803900499FEF7C9FF06909C4867
:10135000406802909A48406801900299FEF7BFFFEA
:10136000049097480068029095480068019002999F
:10137000FEF7B5FF03900499FEF759FF0590069913
:10138000FEF755FF07900899FEF751FF099003F00B
:1013900041F80F908A48006809900F99FEF79FFF67
:1013A000874908600846406809900F99FEF797FF43
:1013B000834948600846806809900F99FEF78FFFBF
:1013C0007F4988600846C06809900F99FEF787FF3B
:1013D0007B49C86008464068014606904FF080404F
:1013E000FEF77DFF07907648C06801460690079893
:1013F000FEF775FF099072480068014606904FF0AD
:101400008040FEF76CFF07906D48806801460690AB
:101410000798FEF764FF08900999FEF75AFF0D90B0
:1014200067480068014606904FF08040FEF757FF7E
:10143000079063484068014606900798FEF74FFF03
:1014400009905F488068014606904FF08040FEF7A3
:1014500046FF07905A48C068014606900798FEF775
:101460003EFF08900999FEF7E2FE0C905448806810
:10147000014606904FF08040FEF731FF079050483C
:101480008068014606900798FEF729FF09904C48AE
:101490004068014605904FF08040FEF720FF06901F
:1014A00047484068014605900698FEF718FF4FF040
:1014B0007E510790FEF710FF08900999FEF709FF8B
:1014C0000B902098B0F904000890FFF791F809906C
:1014D0003C4801680998FEF702FF0A904FF07C51E2
:1014E0000A98FFF71FF909D30A98FFF7D3F80022EB
:1014F000354BCDE90801FFF7E1F80DD222990A98A2
:10150000FEF7EDFE099021980068014608900998C1
:10151000FEF78DFE219908602C480068FFF7BAF8A5
:10152000CDE906010D98FFF7B5F8CDE9020103F00A
:10153000F9FDCDE90401DDE90623FEF7E7FFCDE97A
:101540000801FFF7D3F821994860DDE90B1003F09B
:1015500021FF09901D4801680998FEF7C0FE2199F6
:1015600088602098B0F90A000590FFF741F80690CE
:101570000B99FEF7B4FE08902098B0F9080003908C
:10158000FFF736F804900C99FEF7A9FE0690209814
:10159000B0F906000390FFF72BF804900D99FEF7C1
:1015A0009EFE05900699FEF742FE07900899FEF709
:1015B0003EFE0990FFF76EF8054A03C223B000BD56
:1015C000D8000020BC0000200000E0BFB8000020D0
:1015D000C80000207047000028B900210B4A117094
:1015E0000B4A117010E001280ED109490978491CF5
:1015F000074A1170114609780A2905DB0121034ABF
:1016000011700021024A117070470000380100205B
:101610003C01002010B51F48007830B101280ED0E1
:1016200002281ED0032831D129E000F03BF828B968
:1016300001201849087000201749087027E0174852
:10164000407A012805D10220124908700020134970
:10165000487213480078012802D103200D49087010
:1016600015E00E48407A10B901200A4908700C486C
:101670000078012802D103200649087007E0012004
:1016800004F074FB00200349087000E000BF00BFB5
:1016900010BD00003A0100203901002068480020F8
:1016A0003801002010B52D48007805284BD2DFE81E
:1016B00000F00311273449002948B0F90000B0F5C3
:1016C000617F06DB01202549087004F02FFD2549C4
:1016D000086039E02248B0F90000B0F5617F0BDA0C
:1016E00004F024FD1F490968401AB0F57A7F06D33B
:1016F00002201A49087002E000201849087023E00F
:101700001748B0F90000642806DC0320134908706C
:1017100004F00CFD1449086016E004F007FD1249BE
:101720000968401AB0F57A7F0BD80D48B0F900006F
:10173000642803DD00200949087002E004200749FD
:10174000087001E000E000BF00BF044800780428F2
:1017500001D1002010BD0120FCE70000390100206C
:1017600068480020400100204401002072B600BFFC
:10177000FEE708B504F0DAFC009002F076FB05E025
:10178000FFF7C6F90621684604F0E0FBF8E7000021
:1017900070B5044600F0B0F906462546681C10B145
:1017A00004480078054400BF00F0A6F9801BA84259
:1017B000FAD370BD080000202DE9F8470346002247
:1017C00094466EE14FF0010808FA02F4D1F8008067
:1017D00008EA0400A0427DD1DFF8DCA2D1F8048041
:1017E000A8EB0A09D0453AD014DCB8F1030F50D069
:1017F00009DCB8F1000F31D0B8F1010F1CD0B8F1FD
:10180000020F49D120E0B8F1110F18D0B8F1120F32
:1018100042D11EE0B9F5881F25D006DCB9F5803F1E
:1018200020D0B9F5801F37D11AE0B9F5001F18D0C4
:10183000B9F5041F30D117E0D1F80CC02DE0D1F874
:101840000C8008F1040C28E0D1F80C8008F1080C99
:1018500023E0D1F80C8008F10C0C1EE000BF00BFA3
:1018600000BF00BF00BF00BFD1F80880B8F1000F73
:1018700002D14FF0040C0BE0D1F80880B8F1010F51
:1018800003D14FF0080C1C6102E04FF0080C5C61C2
:1018900003E04FF0000C00E000BF00BFFF2801D8BC
:1018A000984601E003F104084646FF2802D84FEAB3
:1018B000820803E0A2F108084FEA88084746D6F8F4
:1018C00000804FF00F0909FA07F928EA09080CFA15
:1018D00007F900E088E048EA0908C6F80080D1F876
:1018E000048008F08058B8F1805F7DD100BFDFF838
:1018F000CC81D8F8188048F00108DFF8C091C9F809
:101900001880C846D8F8188008F00108CDF8008083
:1019100000BF00BF4FEAB9384FEA920958F8295082
:101920004FEA82784FEA18794FF00F0808FA09F861
:1019300025EA0805DFF88881434502D14FF0000809
:1019400016E0DFF88081434502D14FF001080FE037
:10195000DFF87481434502D14FF0020808E0DFF858
:101960006C81434502D14FF0030801E04FF00408B9
:101970004FEA82794FEA197908FA09F848EA050529
:10198000DFF84C814FEA920948F82950D1F80480D9
:1019900008F48018B8F5801F0AD1DFF83881D8F82C
:1019A000008048EA0008DFF82C91C9F8008009E0BF
:1019B000DFF82081D8F8008028EA0008DFF81491C9
:1019C000C9F80080D1F8048008F40018B8F5001FA9
:1019D00010D1DFF8008108F10408D8F8008048EA47
:1019E0000008DFF8F09000E05AE009F10409C9F8B6
:1019F00000800DE0DFF8DC8008F10408D8F80080F2
:101A000028EA0008DFF8CC9009F10409C9F8008041
:101A1000D1F8048008F40038B8F5003F0ED1DFF8A3
:101A2000B480A8F10408D8F8008048EA0008DFF87C
:101A3000A490A9F10409C9F800800DE0DFF89480B2
:101A4000A8F10408D8F8008028EA0008DFF884909C
:101A5000A9F10409C9F80080D1F8048008F480389D
:101A6000B8F5803F0ED1DFF86C80A8F10808D8F8EF
:101A7000008048EA0008DFF85C90A9F10809C9F87D
:101A800000800DE0DFF84C80A8F10808D8F800804D
:101A900028EA0008DFF83C90A9F10809C9F800809D
:101AA000521CD1F8008028FA02F8B8F1000F7FF438
:101AB00089AEBDE8F8870000000011100010024058
:101AC00000080140000C01400010014000140140DA
:101AD000080001400804014010B5C26821EA020371
:101AE00002EA010443EA0443036110BD0AB1016143
:101AF00001E00B0403617047014800687047000073
:101B00000000002070B504460CB9012070BD94F8A7
:101B10003D0028B9002084F83C00204600F046FB38
:101B2000242084F83D002068006820F0010021682E
:101B300008602068006840F4004021680860206860
:101B4000006820F400402168086000F0F7FC0546BA
:101B50005C496068884206D85B48854201D2012012
:101B600007E0002005E05948854201D2012000E04D
:101B70000020012800D1C9E75548B5FBF0F62068E0
:101B8000406820F03F003043216848604D4960685C
:101B9000884201D8701C07E04FF4967070434FF4F0
:101BA0007A71B0FBF1F0401C2168096A21F03F0115
:101BB00008432168086243496068884214D8681E57
:101BC00061684900B0FBF1F0401CC0F30B00042831
:101BD00001D204203DE0681E61684900B0FBF1F0CD
:101BE000401CC0F30B0034E0A06838B9681E61687F
:101BF00001EB4101B0FBF1F0401C0AE0681E616896
:101C000001EBC10202EB0111B0FBF1F0401C40F40A
:101C10008040C0F30B0008B901201AE0A06848B961
:101C2000681E616801EB4101B0FBF1F0401CC0F39C
:101C30000B000CE0681E616801EBC10202EB0111B0
:101C4000B0FBF1F0401CC0F30B0040F4804040F4C6
:101C500000402168C9694CF6FF729143084321682E
:101C6000C861D4E9070108432168096821F0C0016F
:101C7000084321680860D4E9031008432168896893
:101C800048F2FF329143084321688860D4E9050196
:101C900008432168C96821F0FF0108432168C86032
:101CA0002068006840F0010021680860002020647E
:101CB000202084F83D000020206384F83E0000BF0F
:101CC00024E70000A086010080841E0000093D007A
:101CD00040420F002DE9FE4F04460F4690469946BC
:101CE000DDE90CAB0E9E00200290FFF705FF0546D4
:101CF00094F83D00202872D119230122CE492046B4
:101D0000009501F0A4FD10B10220BDE8FE8F00BFD8
:101D100094F83C00012801D10220F6E7012084F864
:101D20003C0000BF2068006800F0010028B920686E
:101D3000006840F00100216808602068006820F415
:101D4000006021680860222084F83D00402084F86B
:101D50003E0000202064C4F824A0A4F82AB0608DBE
:101D60002085B648E0624B46424639462046CDE9DA
:101D7000006501F019FC08B10120C6E7208D88B983
:101D800000BF0020019020684069019020688069B0
:101D9000019000BF00BF2068006840F40070216817
:101DA00008604BE0208D01281AD12068006820F4DB
:101DB00080602168086072B600BF00200190206832
:101DC0004069019020688069019000BF00BF2068D1
:101DD000006840F400702168086062B62EE029E1D6
:101DE000208D022819D12068006840F40060216825
:101DF000086072B600BF0020019020684069019021
:101E000020688069019000BF00BF2068006820F44E
:101E100080602168086062B610E02068006840F4C5
:101E200080602168086000BF002001902068406940
:101E3000019020688069019000BF00BFEBE0208D19
:101E400003287DD8208D012815D12A463146204609
:101E500001F0D9FD08B1012057E720680069616AE7
:101E60000870606A401C6062208D401E2085608D75
:101E7000401E6085CFE0208D02282CD13346002201
:101E80006F492046009501F0E2FC08B101203CE7D3
:101E900072B62068006840F400702168086020680D
:101EA0000069616A0870606A401C6062208D401E93
:101EB0002085608D401E608562B620680069616A79
:101EC0000870606A401C6062208D401E2085608D15
:101ED000401E60859FE03346002259492046009508
:101EE00001F0B5FC08B101200FE72068006820F47C
:101EF00080602168086072B620680069616A0870B5
:101F0000606A401C6062208D401E2085608D401EEE
:101F100060854C4800681921B0FBF1F04FF47A71EC
:101F2000B0FBF1F0C0EBC00000EB8000029000BFFE
:101F30000298401E02900298A8B90020206300E099
:101F400039E0202084F83D00002084F83E00206C19
:101F500040F02000206462B600BF002084F83C00FE
:101F600000BF0120D1E620684069C0F3800000284E
:101F7000DED02068006840F40070216808602068A6
:101F80000069616A0870606A401C6062208D401EB2
:101F90002085608D401E608562B620680069616A98
:101FA0000870606A401C6062208D401E2085608D34
:101FB000401E60852FE02A463146204601F023FD71
:101FC00008B10120A1E620680069616A0870606AB2
:101FD000401C6062208D401E2085608D401E608503
:101FE00020684069C0F38000A8B1208D032805D186
:101FF0002068006820F4806021680860206800691B
:10200000616A0870606A401C6062208D401E2085F5
:10201000608D401E6085208D00287FF410AF202049
:1020200084F83D00002084F83E0000BF84F83C00A6
:1020300000BF6AE6022068E6020010000000FFFF11
:10204000040001000C0000202DE9FC5F04460F464F
:1020500090469946DDE90CAB0E9EFFF74DFD054617
:1020600094F83D0020287DD1192301224D492046B6
:10207000009501F0ECFB10B10220BDE8FC9F00BF11
:1020800094F83C00012801D10220F6E7012084F8F1
:102090003C0000BF2068006800F0010028B92068FB
:1020A000006840F00100216808602068006820F4A2
:1020B000006021680860212084F83D00402084F8F9
:1020C0003E0000202064C4F824A0A4F82AB0608D4B
:1020D00020853548E0624B46424639462046CDE9E8
:1020E000006501F011FB08B10120C6E731E02A4686
:1020F0003146204601F0CCFC50B1206C042805D1BB
:102100002068006840F40070216808600120B4E78E
:10211000606A007821680861606A401C6062208DF6
:10212000401E2085608D401E608520684069C0F398
:10213000800070B1208D60B1606A0078216808610C
:10214000606A401C6062208D401E2085608D401EAC
:102150006085208D0028CAD12A463146204601F0EC
:1021600043FB00E01CE050B1206C042805D120683E
:10217000006840F400702168086001207DE7206855
:10218000006840F4007021680860202084F83D0059
:10219000002084F83E0000BF84F83C0000BF6CE7DC
:1021A00002206AE7020010000000FFFF10B586B0B1
:1021B0000446002002900390049005901549206881
:1021C000884225D100BF1448806940F008001249B8
:1021D00088610846806900F00800019000BF00BFD8
:1021E000C0200290122003900320059002A90B4802
:1021F000FFF7E2FA00BF0848C06940F40010064942
:10220000C8610846C06900F40010019000BF00BF1B
:1022100006B010BD0054004000100240000C014008
:102220000348006803490978084401490860704779
:10223000000000200800002010B50848006840F0A9
:10224000100006490860032000F098F80F2000F005
:1022500007F800F02BF8002010BD0000002002401D
:1022600070B504460E4800784FF47A71B1FBF0F077
:102270000C490968B1FBF0F5284600F0AFFD08B144
:10228000012070BD102C07D200222146501E00F004
:1022900037F80548046001E00120F2E70020F0E78C
:1022A000080000200C0000200400002008B500BF3A
:1022B0001148806940F001000F4988610846806933
:1022C00000F00100009000BF00BF00BF0846C069D9
:1022D00040F08050C8610846C06900F0805000900E
:1022E00000BF00BF00BF0549486820F0E06040F033
:1022F0000070486000BF08BD0010024000000140AF
:102300002DE9F05F80460D461646002702F090FD4D
:10231000074639462A46334601F00700C0F1070A4E
:10232000BAF1040F02D94FF0040A01E0C0F1070A24
:10233000D14600F1040ABAF1070F02D24FF0000AA9
:1023400001E0A0F1030AD4464FF0010A0AFA09FAA3
:10235000AAF1010A0AEA020A0AFA0CFA4FF0010B82
:102360000BFA0CFBABF1010B0BEA030B4AEA0B0473
:102370002146404602F064FDBDE8F09F00BF00F03A
:102380000702064B19684FF6FF031940044B0B4335
:1023900043EA0221014B196000BF70470CED00E0D9
:1023A0000000FA0570B504460D460CB9012070BD59
:1023B0005A48006800F00700A8420ED2574800684B
:1023C00020F007002843554908600846006800F0DF
:1023D0000700A84201D00120E9E7207800F00200C0
:1023E00002281DD1207800F00400042805D14C48B3
:1023F000406840F4E0604A494860207800F00800F6
:10240000082805D14648406840F460504449486077
:102410004348406820F0F000A16808434049486004
:10242000207800F0010078B36068012806D13C48AC
:10243000006800F4003090B90120B8E76068022815
:1024400006D13748006800F0007040B90120AEE7BF
:102450003348006800F0020008B90120A7E73048BF
:10246000406820F00300616808432D494860FFF789
:1024700043FB064609E0FFF73FFB801B41F2883132
:10248000884202D9032092E707E02548406800F01F
:102490000C006168B0EB810FEDD12048006800F0BE
:1024A0000700A8420ED91D48006820F00700284305
:1024B0001A4908600846006800F00700A84201D0E9
:1024C000012074E7207800F00400042807D11448A4
:1024D000406820F4E060E1680843114948602078D2
:1024E00000F00800082808D10D48406820F460502A
:1024F000216940EAC1000A49486000F03FF80849F4
:102500004968C1F30311074A515CC8400649086095
:1025100006480068FFF7A4FE002048E700200240BC
:1025200000100240366400080C0000200400002067
:1025300001480068704700000C00002000B5FFF75C
:10254000F7FF04494968C1F30221034A515CC840BE
:1025500000BD0000001002404664000800B5FFF70F
:10256000E7FF04494968C1F3C221034A515CC840EE
:1025700000BD0000001002404664000870B5002154
:102580000022002400230020134D696801F00C058F
:10259000F5B1042D02D0082D19D101E00F4819E042
:1025A0000F4DC1F38346AB5D01F4803555B10A4D43
:1025B0006D68C5F340450B4E725D084D5D43B5FB3C
:1025C000F2F402E0084D03FB05F4204602E000BFF0
:1025D000024800BF00BF70BD0010024000127A0028
:1025E000246400083464000800093D00F8B504467E
:1025F0000CB90120F8BD207800F00100002878D047
:10260000F848406800F00C0004280CD0F5484068F9
:1026100000F00C00082811D1F248406800F4803026
:10262000B0F5803F0AD1EF48006800F40030002880
:102630005FD0606800285CD10120DBE700BF6068E4
:10264000B0F5803F06D1E748006840F48030E549A6
:10265000086028E0606858B9E248006820F48030DB
:10266000E04908600846006820F4802008601AE00D
:102670006068B0F5A02F0BD1DA48006840F48020E4
:10268000D84908600846006840F4803008600AE0D5
:10269000D448006820F48030D249086008460068B9
:1026A00020F48020086000BF606888B1FFF724FA3A
:1026B000054606E0FFF720FA401B642801D90320F5
:1026C00098E7C848006800F400300028F2D010E015
:1026D000FFF712FA054606E0FFF70EFA401B6428E2
:1026E00001D9032086E7BF48006800F400300028C5
:1026F000F2D1207800F00200022857D1B948406892
:1027000000F00C0050B1B748406800F00C000828F9
:1027100018D1B448406800F4803098B9B1480068D6
:1027200000F0020020B12069012801D0012061E7FA
:10273000AC48006820F0F800616940EAC100A9498E
:10274000086033E02069E8B10120A7490860FFF77D
:10275000D3F9054606E0FFF7CFF9401B022801D95F
:10276000032047E79F48006800F002000028F2D0ED
:102770009C48006820F0F800616940EAC10099496E
:10278000086013E0002098490860FFF7B5F9054696
:1027900006E0FFF7B1F9401B022801D9032029E721
:1027A0009048006800F002000028F2D1207800F084
:1027B000080008282DD1A069B8B101208B49086014
:1027C000FFF79AF9054606E0FFF796F9401B022845
:1027D00001D903200EE78348406A00F00200002878
:1027E000F2D0012001F03EFE13E000207F49086096
:1027F000FFF782F9054606E0FFF77EF9401B022845
:1028000001D90320F6E67748406A00F0020000286C
:10281000F2D1207800F00400042873D10027714819
:10282000C06900F0805070B900BF6E48C06940F0C8
:1028300080506C49C8610846C06900F08050009023
:1028400000BF00BF01276A48006800F48070B0B97B
:102850006748006840F4807065490860FFF74CF9EC
:10286000054606E0FFF748F9401B642801D903201C
:10287000C0E65F48006800F480700028F2D000BF16
:10288000E068012806D15748006A40F00100554928
:10289000086227E0E06858B95248006A20F0010059
:1028A000504908620846006A20F00400086219E0F6
:1028B000E06805280BD14B48006A40F00400494904
:1028C00008620846006A40F0010008620AE04548D4
:1028D000006A20F00100434908620846006A20F0BF
:1028E0000400086200BFE068A0B1FFF705F90546E3
:1028F00009E0FFF701F9401B41F28831884202D913
:10290000032077E622E03748006A00F00200002842
:10291000EFD012E0FFF7F0F8054608E0FFF7ECF81B
:10292000401B41F28831884201D9032062E62D48DC
:10293000006A00F002000028F0D1012F05D12948DB
:10294000C06920F080502749C86100BFE069C8B362
:102950002448406800F00C00082860D0E069022894
:1029600048D1002020490866FFF7C6F8054606E072
:10297000FFF7C2F8401B022801D903203AE61948A4
:10298000006800F000700028F2D1206AB0F5803FA6
:1029900007D11448406820F40030A1680843114969
:1029A0004860D4E9080108430E49496821F47411CC
:1029B00008430C49486001200B490866FFF79CF862
:1029C000054607E03DE0FFF797F8401B022801D9D4
:1029D00003200FE60348006800F000700028F2D0E2
:1029E0002FE00000001002400000424280044242FA
:1029F00000700040002014490866FFF77DF8054686
:102A000006E0FFF779F8401B022801D90320F1E521
:102A10000E48006800F000700028F2D111E0E06973
:102A2000012800D1E6E50948466806F48031206AAD
:102A3000814204D106F47011606A814201D0012004
:102A4000D8E50020D6E50000000042420010024018
:102A500010B504460CB9012010BD606A38B9606831
:102A6000B0F5827F00D105E00021E16102E00021A4
:102A7000216161610021A16294F8510028B9002010
:102A800084F85000204600F043F8022084F85100FA
:102A90002068006820F0400021680860A08800F4E9
:102AA0008270218901F404410843A18901F4006185
:102AB0000843217C01F002010843217D01F001015E
:102AC0000843218B01F400710843217F01F0380194
:102AD00008432021095D01F080010843218D01F4A4
:102AE00000510843216808600421A06901EA1040F0
:102AF000216848602068C06920F400602168C861CE
:102B000000206065012084F851000020A4E7000047
:102B100010B586B004460020029003900490059002
:102B20001949206888422DD100BF1848806940F4B7
:102B30008050164988610846806900F480500190F1
:102B400000BF00BF00BF0846806940F004008861F4
:102B50000846806900F00400019000BF00BFA0207B
:102B60000290022003900320059002A90848FEF776
:102B700023FE4020029000200390049002A9044804
:102B8000FEF71AFE06B010BD0030014000100240F2
:102B9000000801402DE9FE4F04460F4690461D46B1
:102BA0000C9E01200190FEF7A7FF814694F851B0DA
:102BB00060680290AA46BBF1010F0BD00298B0F5F5
:102BC000827F04D1A06810B9BBF1040F02D00220AB
:102BD000BDE8FE8F1FB1B8F1000F00D00DB9012084
:102BE000F6E700BF94F85000012801D10220EFE77A
:102BF000012084F8500000BF94F85100042802D04E
:102C0000052084F8510000206065C4F83880E5870D
:102C1000A5872763E586A586206460642068006830
:102C200000F04000402805D02068006840F04000D7
:102C300021680860E068B0F5006F52D1606810B19B
:102C4000BAF1010F09D1206B00882168C860206BA0
:102C5000801C2063E08E401EE0863BE02068806898
:102C600000F00200022810D1E08E70B10198012816
:102C70000BD1206B00882168C860206B801C20630A
:102C8000E08E401EE086002001902068806800F001
:102C9000010068B1E08F58B12068C068A16B08805E
:102CA000A06B801CA063E08F401EE0870120019094
:102CB000FEF722FFA0EB0900B0420BD3701C48B115
:102CC000012084F8510000BF002084F8500000BFAC
:102CD00003207DE7E08E0028C0D1E08F0028BDD121
:102CE00052E0606810B1BAF1010F09D1206B007891
:102CF00021680873206B401C2063E08E401EE08634
:102D00003CE02068806800F00200022810D1E08ECC
:102D100070B1019801280BD1206B007821680873ED
:102D2000206B401C2063E08E401EE0860020019056
:102D30002068806800F0010068B1E08F58B1206819
:102D4000C068A16B0870A06B401CA063E08F401EA0
:102D5000E08701200190FEF7CFFEA0EB0900B04212
:102D600001D3701C00B94EB9012084F8510000BF96
:102D7000002084F8500000BF032029E7E08E0028DF
:102D8000BFD1E08F0028BCD14A463146204601F031
:102D900003FD40B12020606500BF002084F8500092
:102DA00000BF012014E7A06850B900BF00200090C8
:102DB0002068C068009020688068009000BF00BF55
:102DC000012084F8510000BF002084F8500000BFAB
:102DD000606D08B10120FBE60020F9E670B50446FD
:102DE0002546681EB0F1807F01D301200FE0681EE8
:102DF0004FF0E02148610F214FF0FF3002F020F842
:102E000000204FF0E021886107200861002070BD9C
:102E100010B50346002200BF93F83C00012801D101
:102E2000022010BD012083F83C0000BF22F0FF000B
:102E3000CC6840EA040222F440708C6840EA040244
:102E400022F480604C6840EA040222F400600C68BE
:102E500040EA040222F480500C6940EA040222F4A1
:102E600000504C6940EA040222F48040CC6940EAF8
:102E700004021868426400BF002083F83C0000BFD1
:102E800000BFCEE730B502460B4600BF92F83C00CB
:102E9000012801D1022030BD012082F83C0000BF92
:102EA000022082F83D00106844681068816824F0B0
:102EB00070041868044310684460104D1068A842FC
:102EC0000BD01068B0F1804F07D00D4D1068A842AC
:102ED00003D00C4D1068A84205D121F0800158683C
:102EE000014310688160012082F83D0000BF00208E
:102EF00082F83C0000BF00BFCDE70000002C01407D
:102F0000000400400008004010B504460CB9012040
:102F100010BD94F83D0028B9002084F83C002046FC
:102F200000F026F8022084F83D00211D206801F001
:102F300011FD012084F8460000BF84F83E00012105
:102F40003F200155402001554120015500BF00BFE1
:102F5000012084F8420043200155442001554520BA
:102F6000015500BF012084F83D000020D0E700009B
:102F700008B5244A016891420DD100BF22498969F0
:102F800041F40061204A91611146896901F40061B0
:102F9000009100BF35E00168B1F1804F0DD100BF55
:102FA0001949C96941F00101174AD1611146C9693E
:102FB00001F00101009100BF23E0144A0168914231
:102FC0000DD100BF1049C96941F002010E4AD1611B
:102FD0001146C96901F00201009100BF11E00C4ADD
:102FE000016891420DD100BF0749C96941F0040150
:102FF000054AD1611146C96901F00401009100BF81
:1030000000BF08BD002C0140001002400004004039
:10301000000800402DE9F04104460D46002700BF9E
:1030200094F83C00012802D10220BDE8F081012083
:1030300084F83C0000BF022084F83D0020688668C8
:1030400026F0770626F47F46206886602868502898
:1030500033D00CDC202850D004DC00284BD01028C2
:1030600051D149E0302849D040284CD139E060287E
:103070002DD0702807D0B0F5805F03D0B0F5005F89
:1030800041D10DE041E0D5E902136A68206801F002
:10309000A3FC2068866846F077062068866034E0E6
:1030A000D5E902136A68206801F096FC2068806800
:1030B00040F480402168886027E0EA6869682068F9
:1030C00001F05AFD5021206801F091FC1DE0EA68F2
:1030D0006968206801F063FD6021206801F087FCC9
:1030E00013E0EA686968206801F046FD4021206825
:1030F00001F07DFC09E000BF00BF00BF2968206827
:1031000001F075FC01E0012700BF00BF012084F839
:103110003D0000BF002084F83C0000BF384684E733
:1031200010B586B0044600200290039004900590EC
:103130003C492068884217D100BF3B48806940F075
:103140000400394988610846806900F00400019054
:1031500000BF00BF0815029002200390059002A94D
:103160003248FEF729FB5BE02068B0F1804F16D1B2
:1031700000BF2D48806940F004002B498861084653
:10318000806900F00400019000BF00BF022002909F
:103190000390059002A92548FEF70EFB40E0244964
:1031A0002068884221D100BF1F48806940F0080094
:1031B0001D4988610846806900F00800019000BF41
:1031C00000BF1020029002200390059002A9194828
:1031D000FEF7F2FA00BF1849486820F4406040F05A
:1031E000E06040F4006048601AE0144920688842BA
:1031F00016D100BF0C48806940F008000A49886178
:103200000846806900F00800019000BF00BF481523
:10321000029002200390059002A90648FEF7CCFA1E
:1032200006B010BD002C0140001002400008014013
:1032300000040040000C0140000001400008004074
:103240002DE9F04104460D461646002700BF94F8CC
:103250003C00012802D10220BDE8F081012084F861
:103260003C0000BF36B1042E1BD0082E31D00C2EEE
:103270005ED145E02946206801F0C2FB20688069E4
:1032800040F00800216888612068806920F004000F
:1032900021688861206880692969084321688861FC
:1032A00048E02946206801F0DBFB2068806940F493
:1032B0000060216888612068806920F4806021684E
:1032C000886120688069296940EA01202168886155
:1032D00030E02946206801F0F7FB2068C06940F023
:1032E00008002168C8612068C06920F004002168D6
:1032F000C8612068C069296908432168C86119E06C
:103300002946206801F014FC2068C06940F4006080
:103310002168C8612068C06920F480602168C861A4
:103320002068C069296940EA01202168C86101E07C
:10333000012700BF00BF00BF002084F83C0000BF91
:10334000384689E710B504460CB9012010BD94F841
:103350003D0028B9002084F83C00204600F025F804
:10336000022084F83D00211D206801F0F3FA0120BD
:1033700084F8460000BF84F83E0001213F2001553B
:10338000402001554120015500BF00BF012084F8B5
:10339000420043200155442001554520015500BFFE
:1033A000012084F83D000020D0E7704710B50446A6
:1033B0000CB9012010BDA06900B100E000BF94F875
:1033C000410028B9002084F84000204600F02AF887
:1033D000242084F841002068C06820F4005021684F
:1033E000C860204601F026FC2068006920F4904067
:1033F000216808612068406920F02A00216848613E
:103400002068C06840F400502168C86000206064F3
:10341000202084F8410084F842000020606300BF4F
:10342000C8E7000010B586B0044600200290039063
:10343000049005901949206888422DD100BF184892
:10344000C06940F400301649C8610846C06900F4FC
:103450000030019000BF00BF00BF0846806940F007
:10346000040088610846806900F00400019000BFF4
:1034700000BF04200290022003900320059002A9BF
:103480000848FEF799F90820029000200390049064
:1034900002A90448FEF790F906B010BD00440040B0
:1034A00000100240000801402DE9F84F04460E4686
:1034B000174699464FF0000A94F84100202850D151
:1034C00006B117B90120BDE8F88F00206064212003
:1034D00084F84100FEF710FB8246A784E784A068C9
:1034E000B0F5805F04D1206910B90025B04602E034
:1034F00035464FF000081EE053460022802120464A
:10350000CDF8009001F014FC20B1202084F8410097
:103510000320D8E745B9B8F80000C0F308002168D7
:10352000486008F1020803E02878216848606D1CB3
:10353000E08C401EE084E08C0028DDD15346002260
:1035400040212046CDF8009001F0F2FB20B1202070
:1035500084F841000320B6E7202084F841000020D1
:10356000B1E70220AFE700BFFEE701460868406907
:10357000C0F38020B0B16FF480600A685061002011
:103580000863202081F83D00002081F83E00086C8F
:1035900040F00400086400BF002081F83C0000BF38
:1035A000012070470020FCE72DE9F84304460F4650
:1035B00015469946DDE908862068006840F4806079
:1035C000216808602068006840F480702168086005
:1035D000434600224FF001112046009600F037F9D3
:1035E00060B12068006800F48070B0F5807F02D17F
:1035F0004FF4007020640320BDE8F88307F0FE005C
:1036000021680861334642463E49204600F07EF973
:1036100008B10120F0E700BF002000902068406959
:10362000009020688069009000BF00BF324641468C
:10363000204600F02DFA50B1206C042805D12068F6
:10364000006840F40070216808600120D4E7B9F1F7
:10365000010F03D1E8B22168086117E0C5F3072024
:103660002168086132464146204600F011FA50B107
:10367000206C042805D12068006840F4007021689F
:1036800008600120B8E7E8B2216808613246414687
:10369000204600F0FDF950B1206C042805D12068C7
:1036A000006840F40070216808600120A4E72068E9
:1036B000006840F4807021680860434600224FF0A3
:1036C00001112046009600F0C2F858B12068006849
:1036D00000F48070B0F5807F02D14FF40070206458
:1036E000032089E7F8B240F0010021680861334601
:1036F00042460449204600F009F908B101207BE761
:10370000002079E7020001002DE9F84304468846CD
:1037100015469946DDE908672068006840F4807026
:1037200021680860334600224FF0011120460097BF
:1037300000F08DF860B12068006800F48070B0F58A
:10374000807F02D14FF4007020640320BDE8F8832D
:1037500008F0FE00216808613B46324621492046B8
:1037600000F0D4F808B10120F0E700BF002000907D
:1037700020684069009020688069009000BF00BF09
:103780003A463146204600F083F950B1206C0428B7
:1037900005D12068006840F40070216808600120AD
:1037A000D4E7B9F1010F03D1E8B22168086117E04D
:1037B000C5F30720216808613A463146204600F0EB
:1037C00067F950B1206C042805D12068006840F4E6
:1037D0000070216808600120B8E7E8B2216808613C
:1037E0000020B3E70200010070B504460D461646FE
:1037F00025E02046FFF7B9FE08B1012070BD681C26
:10380000E8B1FEF779F9801BA84200D8BDB920685D
:103810004069C0F3800090B900202063202084F824
:103820003D00002084F83E00206C40F02000206421
:1038300000BF002084F83C0000BF0120DEE72068C4
:103840004069C0F380000028D3D00020D6E72DE9DE
:10385000F04104460D4617461E46DDF8188038E054
:10386000701CA8B3FEF748F9A0EB0800B04200D8DE
:1038700076BBC5F3074001280AD120684069A9B288
:103880000840A9B2884201D101200BE0002009E0E4
:1038900020688069A9B20840A9B2884201D10120FC
:1038A00000E00020B84214D100202063202084F8DA
:1038B0003D00002084F83E00206C40F02000206491
:1038C00000BF002084F83C0000BF0120BDE8F0816B
:1038D000FFE7C5F3074001280AD120684069A9B273
:1038E0000840A9B2884201D101200BE0002009E084
:1038F00020688069A9B20840A9B2884201D101209C
:1039000000E00020B842ABD00020DFE72DE9F04115
:1039100004460D4616461F4658E020684069C0F32D
:103920008020E8B12068006840F4007021680860D9
:103930006FF480602168486100202063202084F8B3
:103940003D00002084F83E00206C40F0040020641C
:1039500000BF002084F83C0000BF0120BDE8F081DA
:10396000701C90B3FEF7C8F8C01BB04200D866BB0D
:10397000C5F3074001280AD120684069A9B2084070
:10398000A9B2884201D101200BE0002009E02068A3
:103990008069A9B20840A9B2884201D1012000E0A3
:1039A000002090B900202063202084F83D000020F2
:1039B00084F83E00206C40F02000206400BF00200E
:1039C00084F83C0000BF0120C8E7FFE7C5F30740CB
:1039D00001280AD120684069A9B20840A9B28842EA
:1039E00001D101200BE0002009E020688069A9B224
:1039F0000840A9B2884201D1012000E0002000283F
:103A00008BD00020AAE770B504460D46164637E075
:103A100020684069C0F30010A0B16FF01000216869
:103A2000486100202063202084F83D00002084F8B5
:103A30003E00206C206400BF002084F83C0000BFE2
:103A4000012070BDFEF758F8801BA84200D8BDB910
:103A500020684069C0F3801090B9002020632020C6
:103A600084F83D00002084F83E00206C40F02000E7
:103A7000206400BF002084F83C0000BF0120E0E784
:103A800020684069C0F380100028C1D00020D8E72A
:103A900070B504460D46164625E02046FFF765FD45
:103AA00008B1012070BD681CE8B1FEF725F8801B45
:103AB000A84200D8BDB920684069C0F3C01090B9D1
:103AC00000202063202084F83D00002084F83E0080
:103AD000206C40F02000206400BF002084F83C00EF
:103AE00000BF0120DEE720684069C0F3C010002855
:103AF000D3D00020D6E7000008B502F017FB0090F5
:103B0000002455E0601CC4B22A48007830B92A4825
:103B100000F06BF8294800F068F809E025480078C3
:103B2000012805D1244800F058F8244800F055F841
:103B30002348007860B9052094FBF0F100FB1140A8
:103B400010BB204800F042F81F4800F03FF826E084
:103B50001B48007801280DD1204604EBD071491094
:103B6000A4EB410181B9174800F030F8164800F085
:103B70002DF814E012480078022806D1114800F010
:103B800034F8114800F031F809E00D4800780328B6
:103B900005D10C4800F021F80B4800F01EF80A2C63
:103BA00000D1002400BF6421684602F0CFF900BFB5
:103BB000A8E70000380100201801002020010020A3
:103BC0003A010020300100202801002010B50446F1
:103BD000A1882068FDF780FF10BD10B50446A188BC
:103BE00001222068FDF782FF10BD10B50446A188B0
:103BF00000222068FDF77AFF10BD00002DE9F04F8C
:103C000087B00020059006900390049003A800F070
:103C10009BF84FF0000A3AE005A800F095F8BDF9CE
:103C20001430BDF90CC0A3EB0C02002A01DB1346D3
:103C300000E05342B3F5C87F20DABDF91630BDF974
:103C40000EC0A3EB0C01002901DB0B4600E04B4248
:103C5000B3F5C87F12DABDF91830BDF910C0A3EB77
:103C60000C00002801DB034600E04342B3F5C87FA7
:103C700004DA0AF1010000F0FF0A01E04FF0000A47
:103C8000DDE90501CDE90301062002F06FF8BAF184
:103C9000640FC1DB002000900190029000240025F9
:103CA000002600278046814683461DE0684600F0D6
:103CB000D3F8BDF900000444BDF902000544BDF984
:103CC00004000644BDF906000744BDF9080080441D
:103CD000BDF90A00A0F580408144062002F046F8B4
:103CE0000BF1010000F0FF0BBBF1640FDEDB642081
:103CF00097FBF0F00E490860642098FBF0F00D4946
:103D00000860642099FBF0F00B490860642094FB84
:103D1000F0F00A490860642095FBF0F0084908605B
:103D2000642096FBF0F00749086007B0BDE8F08F0B
:103D30006C0100207001002074010020600100204F
:103D400064010020680100201CB50446002000909A
:103D500001A93B2000F0C0F869463C2000F0BCF807
:103D60009DF800009DF8041040EA012015490988DB
:103D7000401A00B2208001A93D2000F0ADF869464C
:103D80003E2000F0A9F89DF800009DF8041040EADC
:103D900001200D490988401A00B2608001A93F2026
:103DA00000F09AF86946402000F096F89DF800006F
:103DB0009DF8041040EA012004490988401A00B225
:103DC000A0801CBD6C010020700100207401002047
:103DD0001CB504460020009001A9432000F07CF8A7
:103DE0006946442000F078F89DF800009DF8041022
:103DF00040EA012015490988401A00B2208001A933
:103E0000452000F069F86946462000F065F89DF805
:103E100000009DF8041040EA01200D490988401A6D
:103E200000B2608001A9472000F056F8694648209A
:103E300000F052F89DF800009DF8041040EA0120BF
:103E400004490988401A00B2A0801CBD600100200E
:103E5000640100206801002010B504462046FFF7E9
:103E6000B7FFA01DFFF770FF10BD08B580216B20C4
:103E700000F044F80020009003E069466B2000F059
:103E80002BF89DF800004028F7D100216B2000F0AE
:103E900035F818211B2000F031F800211C2000F01B
:103EA0002DF80021382000F029F800216A2000F0C8
:103EB00025F80121192000F021F801211A2000F035
:103EC0001DF801216B2000F019F800216C2000F092
:103ED00015F8FFF793FE08BD3EB504460D464FF4B6
:103EE0007A7001210B462246CDE900510290D12182
:103EF0000148FDF7EFFE3EBD8001002013B584B000
:103F000004464FF47A70012105AA0B46CDE9002141
:103F100002902246D0210248FEF796F806B010BD66
:103F20008001002000B585B0002001900290039030
:103F3000049000BF3048806940F010002E4988612D
:103F40000846806900F01000009000BF00BF00BF6D
:103F50000846806940F0200088610846806900F0CA
:103F60002000009000BF00BF00BF0846806940F0FD
:103F7000040088610846806900F00400009000BFDA
:103F800000BF00BF0846806940F00800886108460D
:103F9000806900F00800009000BF00BF012241F6D8
:103FA00010011648FDF7A2FD01224CF2040114484D
:103FB000FDF79CFD00224FF480711048FDF796FD3F
:103FC00041F6101001900120029000200390022081
:103FD000049001A90948FDF7EFFB4CF204000190A1
:103FE00001200290002003900220049001A90448BF
:103FF000FDF7E2FB05B000BD0010024000080140E3
:10400000000C014010B50B480B4908600B48486094
:10401000002109488160C1604FF4804101610021A5
:1040200041618161C1610162FDF76CFD08B1FDF77D
:104030009DFB10BD0054004080010020801A060046
:1040400010B50E480E4908604FF482704860002198
:104050000B488160C160016141614FF40071816171
:104060001021C16100210162416281620A21C162A5
:10407000FEF7EEFC08B1FDF779FB10BD0030014002
:10408000D401002000B595B000201190129013903B
:1040900014900F9010901C2108A8FCF7A6F820217E
:1040A0006846FCF7A2F82B482B49086004204860BA
:1040B00000212948816040F2E731C160002101619F
:1040C00041618161FEF720FF08B1FDF74FFB4FF41E
:1040D0008050119011A92048FEF79CFF08B1FDF710
:1040E00045FB1D48FFF72EF908B1FDF73FFB002007
:1040F0000F9010900FA91848FEF7C4FE08B1FDF705
:1041000035FB60200890C820099000200A900B9091
:104110000C900D900E90082208A90F48FFF790F818
:1041200008B1FDF723FB002000900190029003905E
:1041300004904FF40050059000200790694606480F
:10414000FEF766FE08B1FDF711FB0348FEF7E8FF36
:1041500015B000BD002C01402C02002000B58DB030
:10416000002009900A900B900C90079008901C2159
:104170006846FCF73AF84FF0804020490860042078
:10418000486000211D48816040F2E731C160002194
:1041900001618161FEF7B8FE08B1FDF7E7FA4FF45F
:1041A0008050099009A91548FEF734FF08B1FDF7C2
:1041B000DDFA1248FFF7C6F808B1FDF7D7FA00207C
:1041C0000790089007A90D48FEF75CFE08B1FDF7BF
:1041D000CDFA60200090C820019000200290049049
:1041E000042269460548FFF72BF808B1FDF7BEFA2F
:1041F0000248FEF795FF0DB000BD000074020020DC
:1042000000B58DB0002009900A900B900C9007909B
:1042100008901C216846FBF7E8FF20482049086009
:104220000420486000211E48816040F2E731C160EF
:10423000002101618161FEF767FE08B1FDF796FA82
:104240004FF48050099009A91548FEF7E3FE08B124
:10425000FDF78CFA1248FFF775F808B1FDF786FAFA
:1042600000200790089007A90D48FEF70BFE08B143
:10427000FDF77CFA60200090C82001900020029099
:104280000490002269460648FEF7DAFF08B1FDF700
:104290006DFA0348FEF744FF0DB000BD0004004076
:1042A000BC02002000B58DB0002009900A900B9050
:1042B0000C90079008901C216846FBF796FF204859
:1042C000204908600420486000211E48816040F2B7
:1042D000E731C160002101618161FEF715FE08B17F
:1042E000FDF744FA4FF48050099009A91548FEF7EC
:1042F00091FE08B1FDF73AFA1248FFF723F808B12A
:10430000FDF734FA00200790089007A90D48FEF742
:10431000B9FD08B1FDF72AFA60200090C82001908D
:104320000020029004900C2269460648FEF788FFA0
:1043300008B1FDF71BFA0348FEF7F2FE0DB000BD11
:10434000000800400403002010B50B480B4908602A
:104350004FF4E1304860002108488160C16001618C
:104360000C21416100218161C161FFF71FF808B193
:10437000FDF7FCF910BD0000004400404C03002094
:1043800000BFFEE700BFFEE710B5002204210E4883
:10439000FDF7ACFB642001F0E9FC012204210A488E
:1043A000FDF7A4FBC82001F0E1FC0022042106482F
:1043B000FDF79CFB642001F0D9FC01220421024896
:1043C000FDF794FB10BD0000000C014010B5002269
:1043D00004210648FDF78AFB642001F0C7FC012296
:1043E00004210248FDF782FB10BD0000000C0140D3
:1043F00001F09CFE0DE042F210720121002001F05C
:10440000DFFB044614B1FFF7BFFF01E0FFF7DEFF5B
:1044100000BFF0E72DE9F05F04464FF07F594FF001
:104420007C512046FBF75BFF824625462E460C4812
:10443000A0EB6606354629465046FBF750FF8346FB
:104440002946FBF74CFF80464946FBF745FF0746E8
:104450002946FBF744FF05462846BDE8F09F0000CB
:10446000DF59375F08B508490968C9084FF47A72FF
:10447000B1FBF2F14143009100BF00BF00994A1E19
:1044800000920029F9D108BD0C00002070B511215F
:104490003148FBF7AAFE304800F02AF92E48FBF716
:1044A000AFFE08B9012070BD2B4800786C2807D1F9
:1044B00029484078682803D127488078792801D096
:1044C0000120F0E700240025002004E02249095CD7
:1044D0000C44411CC8B20D28F8DB1F48407B000685
:1044E0001D49897B40EA01401B49C97B40EA012004
:1044F0001949097C40EA0105AC4201D00120D2E70C
:10450000154800791449C97840EA012000B21349DE
:104510000880114880791049497940EA012000B2A9
:104520000E4948800C48007A0B49C97940EA0120BD
:1045300000B20A4988800848807A0749497A40EAE7
:10454000012000B20549C8800348C07A08720248B9
:10455000007B48720020A6E78348002068480020BE
:1045600010B505220C49302000F0DCF805220B497B
:10457000102000F083F8002109E00848405C064A5A
:10458000525C904201D0012010BD481CC1B20529E7
:10459000F3DB0020F8E7000054010020590100205F
:1045A00010B5C820FDF7F4F802E00A20FDF7F0F896
:1045B000FFF7D6FF0128F8D000F02EF82F2109A030
:1045C000FBF725FE28B12F2106A0FBF720FE401C9B
:1045D00000E004A00446E022214607A000F0F0FB22
:1045E00010BD0000496E746572666163655C534975
:1045F000323452312E6300005B25733A25645D53DB
:1046000049323452315F496E697420537563636572
:104610007373210D0A00000010B500224FF4807161
:104620001448FDF763FA052213492A2000F07AF8AE
:104630000121212000F098F80121222000F094F8B7
:104640002821252000F090F81121312000F08CF86D
:104650000621262000F088F80F21202000F084F8A1
:10466000FF21272000F080F8012211020148FDF708
:104670003DFA10BD00080140540100202DE9F04131
:1046800007460D461646002210210C48FDF72EFA6B
:10469000384600F0A3F88046002405E0002000F032
:1046A0009DF82855601CC4B2B442F7DB01221021EA
:1046B0000248FDF71BFA4046BDE8F08100080140C2
:1046C00070B50446002210210848FDF70FFA204675
:1046D00000F084F8002000F081F805460122102146
:1046E0000248FDF703FA284670BD000000080140AB
:1046F00070B504460720FFF7E3FF0546294627204B
:1047000000F032F805F0400050B11122214661203E
:10471000FFF7B4FFFF21E22000F026F8002070BD73
:104720000120FCE72DE9F04107460C461546002222
:1047300010210C48FDF7DAF9384600F04FF88046B2
:10474000002605E014F8010B00F048F8701CC6B212
:10475000AE42F7DB012210210248FDF7C7F94046BF
:10476000BDE8F0810008014070B505460C46002206
:1047700010210848FDF7BAF9284600F02FF8064640
:10478000204600F02BF8012210210248FDF7AEF977
:10479000304670BD00080140F8B504460E46154687
:1047A0003346012202212046009500F029F828B165
:1047B000606D40F0200060650320F8BD33460022A4
:1047C00080212046009500F01BF828B1606D40F074
:1047D000200060650320F0E70020EEE701B582B01D
:1047E000002001904FF47A70012301AA02A90090E1
:1047F0000248FEF7CFF99DF804000EBDD401002059
:104800002DE9F84F04460D4690461E46DDF82890E7
:10481000FDF772F9A0EB0900371AFDF76DF9824632
:104820002C480068C0F3CB307843009045E0701C02
:10483000002842D0FDF760F9A0EB0A00B84200D290
:10484000A7BB2068406820F0E000216848606068ED
:10485000B0F5827F0DD1A068B0F5004F03D0A068FD
:10486000B0F5806F05D12068006820F04000216815
:104870000860A06AB0F5005F0DD100BF2068006835
:1048800020F40050216808602068006840F400505F
:104890002168086000BF012084F8510000BF00209B
:1048A00084F8500000BF0320BDE8F88FFFE70098B0
:1048B00000B900270098401E0090206880682840BA
:1048C000A84201D1012000E000204045AFD10020E6
:1048D000EAE700000C00002010B501F017FC0128E9
:1048E00001D001F0E5FAFDF79BFC10BD00B58FB0DB
:1048F000282105A8FBF779FC14216846FBF775FC15
:1049000001200590000406900020079001200990E6
:1049100002200C90C1030D914FF4E0110E9105A8F7
:10492000FDF764FE08B1FCF721FF0F200090022084
:104930000190002002904FF48060039000200490CA
:1049400002216846FDF72EFD08B1FCF70FFF0FB0FE
:1049500000BD704710B502681C4B984208D0B0F1FA
:10496000804F05D01A4B984202D01A4B984203D17F
:1049700022F070024B681A43144B984208D0B0F1F1
:10498000804F05D0124B984202D0124B984203D16F
:1049900022F44072CB681A4322F080034C6943EA48
:1049A000040202608B68C3620B688362074B984203
:1049B00001D10B69036301234361036903F0010320
:1049C0001BB1036923F00103036110BD002C0140FA
:1049D000000400400008004030B50C46816821F416
:1049E0007F4142EA032525432943816030BD0A46C1
:1049F000816821F0700142F007031943816070471C
:104A000030B5026A056A25F00105056243688469CC
:104A100024F0700424F003040D682C4322F00202F9
:104A20008D682A430D4DA84206D100BF22F008022E
:104A3000CD682A4322F00402084DA84207D123F48E
:104A4000807323F400734D692B438D692B434360BE
:104A500084614D684563026230BD0000002C014056
:104A600030B5026A056A25F010050562436884695D
:104A700024F4E04424F440740D6844EA052422F050
:104A800020028D6842EA05120E4DA84207D100BFF0
:104A900022F08002CD6842EA051222F04002094D60
:104AA000A84209D123F4806323F400634D6943EAEB
:104AB00085038D6943EA8503436084614D6885639E
:104AC000026230BD002C014030B5026A056A25F44F
:104AD000807505624368C46924F0700424F00304FF
:104AE0000D682C4322F400728D6842EA05220F4DB6
:104AF000A84207D100BF22F40062CD6842EA052235
:104B000022F48062094DA84209D123F4805323F492
:104B100000534D6943EA05138D6943EA0513436069
:104B2000C4614D68C563026230BD0000002C0140C5
:104B300030B5036A056A25F4805505624468C26988
:104B400022F4E04222F440720D6842EA052223F486
:104B500000538D6843EA0533064DA84204D124F47E
:104B600080444D6944EA85144460C2614D6805641F
:104B7000036230BD002C014030B50B461446026A7A
:104B8000056A25F001050562816921F0F00141EA1D
:104B9000041122F00A021A438161026230BD30B56D
:104BA0000B461446026A056A25F010050562816904
:104BB00021F4704141EA043122F0A00242EA0312DA
:104BC0008161026230BD00BF00BF02680C3252E852
:104BD000002F22F4907102680C3242E80013002B7F
:104BE000F3D100BF00BF00BF0268143252E8002FAB
:104BF00022F001010268143242E80013002BF3D1C5
:104C000000BF016B01290ED100BF00BF02680C324A
:104C100052E8002F22F0100102680C3242E8001323
:104C2000002BF3D100BF202180F842100021016346
:104C30007047000070B504462168096921F44051AD
:104C4000E2681143226811612269A1681143626917
:104C500041EA02052168C96841F20C629143294387
:104C60002268D1602168496921F44071A269114329
:104C7000226851612D4A2168914202D1FDF76EFCF4
:104C800001E0FDF75BFC00EBC00101EB0011626885
:104C90009200B1FBF2F100EBC00202EB001263687C
:104CA0009B00B2FBF3F26423B2FBF3F202EBC2030C
:104CB00003EB0212A1EB8201322202EB011164220A
:104CC000B1FBF2F101F0F00100EBC00202EB0012C7
:104CD00063689B00B2FBF3F26423B2FBF3F201EBD7
:104CE000021200EBC00101EB001163689B00B1FBF5
:104CF000F3F100EBC00303EB00136668B600B3FBEF
:104D0000F6F36426B3FBF6F303EBC30606EB0313DB
:104D1000A1EB8301322303EB01116423B1FBF3F117
:104D200001F00F0111442268916070BD003801400C
:104D30002DE9F84304460D4617469846089E31E093
:104D4000701C70B3FCF7D8FEA0EB0800B04200D88E
:104D500016B90320BDE8F8832068C06800F004009D
:104D6000F8B1802D1ED0402D1CD020680068C0F303
:104D7000C000B0B100BF0020009020680068009023
:104D800020684068009000BF00BF2046FFF71BFF6F
:104D90000820606400BF002084F8400000BF0120AC
:104DA000D8E7FFE7206800682840A84201D1012029
:104DB00000E00020B842C3D00020CBE700BFFEE7F0
:104DC0000FB4054B10B503A9044A029800F0CEF8C1
:104DD00010BC5DF814FB0000F155000878010020BC
:104DE000490050EAC12018BF04204A0D18BF40F006
:104DF000010040F2FF72B2EB515F08BF40F00200C9
:104E0000012808BF052070474100080218BF042090
:104E10000A0E18BF40F001004FF07F4232EA010154
:104E200008BF40F00200012808BF052070470000BD
:104E300002480068C0F30220704700000CED00E05B
:104E400010B5002804DB0A07130E054A135406E0C8
:104E50000A07140E034A00F00F031B1FD45410BDA1
:104E600000E400E018ED00E02DE9F0414F1E00EBFA
:104E7000C7010446D1E9000115461E4637F0060277
:104E80000DD02A463346FBF741FB7F1E04EBC703D8
:104E9000D3E90023FBF793FA37F00602F1D1022F92
:104EA00025D0042F13D0062F18BFBDE8F0812A4665
:104EB0003346FBF72BFBD4E90A23FBF780FA2A469B
:104EC0003346FBF723FBD4E90823FBF778FA2A469D
:104ED0003346FBF71BFBD4E90623FBF770FA2A469F
:104EE0003346FBF713FBD4E90423FBF768FA2A46A1
:104EF0003346FBF70BFBD4E90223FBF760FA2A46A3
:104F00003346FBF703FBD4E90023BDE8F041FBF790
:104F100056BA0122FBF74ABD00221346104611463D
:104F2000FBF7D5BC024A00201107FBF73FBD00008C
:104F300001FDFFFFFBF77BB96FF05E010807FBF790
:104F40005FBD02E008C8121F08C1002AFAD17047ED
:104F50007047002001E001C1121F002AFBD17047F9
:104F600001490860704700007C0100202DE9FF4FD7
:104F70008BB09A460F460546002606E025280BD042
:104F800052460D9990476D1C761C28780028F5D163
:104F90000FB03046BDE8F08F0024A04601226049E2
:104FA00000E0044315F8013F203B02FA03F00842F9
:104FB000F7D128782E2817D115F8010F44F00404F2
:104FC0002A280ED06FF02F022878A0F1300109298D
:104FD0000AD808EB880102EB410100EB01086D1CC7
:104FE000F2E757F8048B6D1C287869283ED006DC60
:104FF0000028CDD063280BD0642804D136E0732874
:1050000010D075284BD052460D999047761C85E0FC
:1050100017F8040B8DF8000000208DF80100E94618
:10502000012003E057F8049B4FF0FF3061074FF079
:10503000000401D40AE0641C44450DDA8442FADB22
:1050400019F804100029F6D106E0641C8442FCDB48
:1050500019F804100029F8D1264404E019F8010BCE
:1050600052460D999047641EF8D257E001CF4FF099
:105070000A0B002802DA40422D2102E0210504D566
:105080002B218DF82410012103E0E10705D0202118
:10509000F7E70DF1200908910CE00021F9E701CFB5
:1050A0004FF00A0BF9E75946FBF746FB01F13002D6
:1050B00009F8012D0028F6D1ADEB090000F1200B15
:1050C000600701D44FF00108D84502DDA8EB0B00C2
:1050D00000E000208046002406E009A85246005D5A
:1050E0000D999047641C761C08988442F5DB04E017
:1050F000302052460D999047761CB8F10001A8F176
:105100000108F5DC05E019F8010B52460D999047AE
:10511000761CBBF10001ABF1010BF4DC6D1C34E734
:10512000092801002DE9F04D8D4F21F0004A86B08D
:1051300005460C46BA452ADBAAEB070028430AD0ED
:105140008848824501DC1AD1CDB106B02846BDE8B9
:10515000F04DFFF7DEBE844A844B2846FBF7D6F9B4
:1051600007460E46824A834B28462146FBF7CEF976
:1051700006B03A463346BDE8F04DFBF720B90120B2
:10518000FFF7EEFE06B0BDE8F04DFFF7C5BE7A486A
:10519000824542DABAF1795F0BDA2846FFF720FE42
:1051A000042808BFFFF7BEFE284606B02146BDE82A
:1051B000F08D2A460B461046FBF7A8F983460246B7
:1051C0006E480E460B4606217844FFF74DFE5A46C0
:1051D0003346FBF79BF9804669488A465A46334670
:1051E00004217844FFF740FE5A463346FBF78EF918
:1051F00000223B46FBF7E3F802460B464046514689
:10520000FBF765FB2A462346FBF780F906B02A46E2
:105210002346BDE8F04DFBF7D2B8284624F0004104
:1052200000223D463B46FBF76EF94FF0FF32FBF79D
:10523000BDFB0646024653480F460B4606217844FE
:10524000FFF712FE32463B46FBF760F9CDE900015D
:105250004D4832463B4604217844FFF705FE32466E
:105260003B46FBF753F900222B46FBF7A8F8834691
:1052700002913046394600F07DFC804643480D4699
:10528000504517DCDDE900015A46029BFBF71FFB86
:1052900042462B46FBF73AF942462B46FBF78FF87E
:1052A0000122FBF783FB304A304BFBF729F9304AE8
:1052B000304B4CE04FF0000A52460B464046FBF79D
:1052C0007EF8CDE9031052462B4610461946FBF7EF
:1052D0001DF932463B46FBF716F9DDE90332FBF7D1
:1052E000F6FA06460F46DDE900015A46029BFBF737
:1052F000EEFA83460091012230463946FBF756FB11
:10530000194A1A4BFBF7FFF806460F4601224046A2
:105310002946FBF74BFB5A46009BFBF7F7F8324652
:105320003B46FBF7EDF806460F460122504629465C
:10533000FBF73CFB0E4DDFF858802A464346FBF74F
:10534000E2F832463B46FBF7DEF82A464346FBF7D7
:10535000DAF8002CD8BF81F0004106B0BDE8F08D2E
:105360000000F03F0000F07F075C143326A6913C5C
:10537000182D4454FB21F93F0000E03F8412000047
:105380009A1200000E120000241200003333EF3F87
:10539000FB21E93F2DE9F0474FF0684202EB400363
:1053A0000C460546B3F1654F3CBF02EB4102B2F13A
:1053B000654F7CD2C0F3C753C1F3C7529A1A1B2A58
:1053C00006DD10F0004F14BF76487748BDE8F0873F
:1053D00012F11A0F17DA11F0004F06D010F0004F3B
:1053E0000CBF72487248BDE8F08721462846FAF79C
:1053F000A8FF0446FFF708FD042808BFFFF79CFD3F
:105400002046BDE8F0874200B2EB410F25D910F0ED
:10541000004F19BF674F684E684F694E224685F0AE
:10542000004415460A4680F0004110460A1A520010
:10543000B2F1807F40D248406249DFF88CA110F081
:10544000004F18D04FF03F483846FAF742FF074662
:1054500051463046FAF73DFF17E011F0004F04BF08
:1054600000263746E2D010F0004F19BF574F584E74
:10547000584F594EDAE74FF07C583846FAF7D7FEC6
:10548000074651463046FAF7D2FE064641462846C0
:10549000FAF725FF2146FAF7CAFE82462146404622
:1054A000FAF71DFF2946FAF717FF514600E037E0EB
:1054B000FAF747FF044604E021462846FAF741FF81
:1054C00004460146FAF70BFF80464449FAF707FF06
:1054D0004349FAF7ACFE4146FAF701FF4149FAF7B2
:1054E000A6FE4146FAF7FBFE3F49FAF7A0FE414609
:1054F000FAF7F5FE3D49FAF79AFE05464146204681
:10550000FAF7EDFE2946FAF7EAFE3146FAF78FFE82
:105510002146FAF78CFE3946BDE8F047FAF787BE18
:105520004FF07F42B2EB400F28BFB2EB410F03D2E6
:10553000BDE8F047FFF7FEBC40EA01035B0008BF8F
:1055400044F0FF410AD0B2EB400F08BFB2EB410F6D
:1055500006D125F0804024F0804105460C4629E71D
:10556000B2EB400F12BF5FEA410245F0FF4004F08A
:1055700000413FF41FAF4A0092EA40033FF51AAFE3
:10558000002AACBF4FF09F464FF03E563146FAF727
:10559000A6FE054631462046FAF7A1FE04462846F7
:1055A000214607E7DB0FC9BFDB0FC93FDB0F4940CF
:1055B000DB0F49C00000C9BF22AAFDB90000C93FE6
:1055C00022AAFD390060ED3EC30ACE37000049C073
:1055D00022AA7DBA0000494022AA7D3A2DAD65BDC0
:1055E0008FB8D53D0FB511BE61C84C3EA8AAAABE62
:1055F00013B50C464FF47A73012269460248FDF751
:1056000053FF00981CBD00004C030020FCF714FE63
:10561000FFF76CF9FEF786FCFEF734FDFEF79EFD02
:10562000FEF7EEFDFEF73EFEFEF70AFDFEF78CFEEE
:10563000FEF7E8FCFEF7B4FFFBF716FB00BFFEE742
:105640002DE9F04105460E462648076826480068C1
:10565000001D00F0F9FA50B92348006890F82C10AA
:105660000120884021490968814320480160681C65
:10567000D8B9D6B11E4948681B49096888601A49DB
:1056800082680968CA6018490968091D8268516002
:1056900015490968091D8160154A134909684A615D
:1056A00011460968491C11601AE07C190E4800680F
:1056B0004460BC4207D20C480168091D0D480068CF
:1056C00000F0E6FA0CE008480168091D0A48006885
:1056D00000F0DEFA09480068844201D207480460FD
:1056E000BDE8F081240000201000002028000020E8
:1056F0004804002018000020140000204000002072
:1057000010B5044600F0DEFA2F480068401C2E4910
:1057100008602E48006840B92C48046008460068BC
:1057200001280DD100F016F90AE02948006838B9BF
:1057300026480068C06AE16A884201D823480460AC
:1057400024480068401C2349086094F82C1001206C
:1057500088402149096808431F490860E16A01EB54
:1057600081011E4A02EB81014868A0608268E26004
:10577000211D826851608160E16A01EB8101174A55
:1057800002EB81026261E16A01EB8101134A52F886
:105790002110491CE26A02EB8202104B43F82210EE
:1057A00000F0A2FA0A48006868B108480068C06AB8
:1057B000E16A884207D24FF0805009490860BFF380
:1057C0004F8FBFF36F8F10BD20000020100000200E
:1057D0002C0000203C000020280000209403002022
:1057E00004ED00E010B516E000F06CFA0C48C0685B
:1057F000C468201D00F028FA0A480068401E0949C4
:10580000086009480068401E0749086000F06CFA0B
:10581000204600F00BF8044800680028E4D110BDD1
:1058200034040020200000201C00002010B5044695
:10583000206B00F069FA204600F066FA10BD000007
:1058400030B54FF48843154800F007042CB1C01D53
:1058500020F00700114C041B1B1B0246104C226059
:1058600000240F4D6C60D018083820F007000D4C54
:10587000206000240B4D2D686C600A4D2D682C6053
:105880001146441A4C60074C24680C60064D4C6865
:105890002C60064D4C682C6030BD00005C0400207C
:1058A0005000002058000020600000205C00002014
:1058B00000BFFFF797FF064800680128F9D94FF0AD
:1058C000805004490860BFF34F8FBFF36F8FF0E73C
:1058D0009403002004ED00E02DE9FF5F80460E46B2
:1058E0009146DDE90E7A109CA9F10100216B01EBD4
:1058F000800B2BF0070B7EB1002507E0715D04F1F2
:1059000034004155705D00B902E06D1C102DF5D3D7
:1059100000BF002143200155052F00D30427E76273
:10592000201D00F0B2F904F1180000F0AEF9246176
:10593000C7F10500A061646241465846039A00F031
:1059400007F92060BAF1000F01D0CAF80040BDE8A5
:10595000FF9F000010B5002407E004EB84010F4A0C
:1059600002EB810000F084F9641C052CF5D30C488F
:1059700000F07EF90B4800F07BF90B4800F078F955
:105980000A4800F075F90A4800F072F9044809491C
:10599000086004480849086010BD00009403002016
:1059A000F80300200C040020200400203404002010
:1059B00048040020140000201800002010B5014603
:1059C000164800E0006803688B42FBD30246436838
:1059D00013448B4204D143684C682344436001461E
:1059E0000A464B6813440468A34211D10C4C036867
:1059F0002468A34208D04B680468646823444B6061
:105A000003681B680B6005E0054B1B680B6001E039
:105A100003680B60884200D0016010BD5000002078
:105A20005800002009480068006808B9012000E01B
:105A3000002020B14FF0FF300549086005E0034821
:105A40000068C068006802490860704714000020C0
:105A50004000002000BFBF2080F31188BFF34F8FAC
:105A6000BFF36F8F00BF00BFFEE700002DE9F047D6
:105A700005464FF0000900F0C9F93048006808B940
:105A8000FFF7DEFE75B105F00700C0F11008C8F1A0
:105A9000FF30A84201D2012000E0002008B94544AF
:105AA00000E00025012000EBE570002841D0002D2A
:105AB0003FD02348006885423BD8224E30460468D8
:105AC00001E0264624686068A84202D220680028C7
:105AD000F7D11A48006884422BD0306800F10809D9
